{
  "_format": "hh-sol-artifact-1",
  "contractName": "Domains",
  "sourceName": "contracts/Domains.sol",
  "abi": [
    {
      "inputs": [
        {
          "internalType": "string",
          "name": "_tld",
          "type": "string"
        }
      ],
      "stateMutability": "payable",
      "type": "constructor"
    },
    {
      "anonymous": false,
      "inputs": [
        {
          "indexed": true,
          "internalType": "address",
          "name": "owner",
          "type": "address"
        },
        {
          "indexed": true,
          "internalType": "address",
          "name": "approved",
          "type": "address"
        },
        {
          "indexed": true,
          "internalType": "uint256",
          "name": "tokenId",
          "type": "uint256"
        }
      ],
      "name": "Approval",
      "type": "event"
    },
    {
      "anonymous": false,
      "inputs": [
        {
          "indexed": true,
          "internalType": "address",
          "name": "owner",
          "type": "address"
        },
        {
          "indexed": true,
          "internalType": "address",
          "name": "operator",
          "type": "address"
        },
        {
          "indexed": false,
          "internalType": "bool",
          "name": "approved",
          "type": "bool"
        }
      ],
      "name": "ApprovalForAll",
      "type": "event"
    },
    {
      "anonymous": false,
      "inputs": [
        {
          "indexed": true,
          "internalType": "address",
          "name": "from",
          "type": "address"
        },
        {
          "indexed": true,
          "internalType": "address",
          "name": "to",
          "type": "address"
        },
        {
          "indexed": true,
          "internalType": "uint256",
          "name": "tokenId",
          "type": "uint256"
        }
      ],
      "name": "Transfer",
      "type": "event"
    },
    {
      "inputs": [
        {
          "internalType": "address",
          "name": "to",
          "type": "address"
        },
        {
          "internalType": "uint256",
          "name": "tokenId",
          "type": "uint256"
        }
      ],
      "name": "approve",
      "outputs": [],
      "stateMutability": "nonpayable",
      "type": "function"
    },
    {
      "inputs": [
        {
          "internalType": "address",
          "name": "owner",
          "type": "address"
        }
      ],
      "name": "balanceOf",
      "outputs": [
        {
          "internalType": "uint256",
          "name": "",
          "type": "uint256"
        }
      ],
      "stateMutability": "view",
      "type": "function"
    },
    {
      "inputs": [
        {
          "internalType": "string",
          "name": "",
          "type": "string"
        }
      ],
      "name": "domains",
      "outputs": [
        {
          "internalType": "address",
          "name": "",
          "type": "address"
        }
      ],
      "stateMutability": "view",
      "type": "function"
    },
    {
      "inputs": [
        {
          "internalType": "string",
          "name": "name",
          "type": "string"
        }
      ],
      "name": "getAddress",
      "outputs": [
        {
          "internalType": "address",
          "name": "",
          "type": "address"
        }
      ],
      "stateMutability": "view",
      "type": "function"
    },
    {
      "inputs": [
        {
          "internalType": "uint256",
          "name": "tokenId",
          "type": "uint256"
        }
      ],
      "name": "getApproved",
      "outputs": [
        {
          "internalType": "address",
          "name": "",
          "type": "address"
        }
      ],
      "stateMutability": "view",
      "type": "function"
    },
    {
      "inputs": [
        {
          "internalType": "string",
          "name": "name",
          "type": "string"
        }
      ],
      "name": "getRecord",
      "outputs": [
        {
          "internalType": "string",
          "name": "",
          "type": "string"
        }
      ],
      "stateMutability": "view",
      "type": "function"
    },
    {
      "inputs": [
        {
          "internalType": "address",
          "name": "owner",
          "type": "address"
        },
        {
          "internalType": "address",
          "name": "operator",
          "type": "address"
        }
      ],
      "name": "isApprovedForAll",
      "outputs": [
        {
          "internalType": "bool",
          "name": "",
          "type": "bool"
        }
      ],
      "stateMutability": "view",
      "type": "function"
    },
    {
      "inputs": [
        {
          "internalType": "string",
          "name": "",
          "type": "string"
        }
      ],
      "name": "isWebsiteRegistered",
      "outputs": [
        {
          "internalType": "bool",
          "name": "",
          "type": "bool"
        }
      ],
      "stateMutability": "view",
      "type": "function"
    },
    {
      "inputs": [],
      "name": "name",
      "outputs": [
        {
          "internalType": "string",
          "name": "",
          "type": "string"
        }
      ],
      "stateMutability": "view",
      "type": "function"
    },
    {
      "inputs": [
        {
          "internalType": "uint256",
          "name": "tokenId",
          "type": "uint256"
        }
      ],
      "name": "ownerOf",
      "outputs": [
        {
          "internalType": "address",
          "name": "",
          "type": "address"
        }
      ],
      "stateMutability": "view",
      "type": "function"
    },
    {
      "inputs": [
        {
          "internalType": "string",
          "name": "name",
          "type": "string"
        }
      ],
      "name": "price",
      "outputs": [
        {
          "internalType": "uint256",
          "name": "",
          "type": "uint256"
        }
      ],
      "stateMutability": "pure",
      "type": "function"
    },
    {
      "inputs": [
        {
          "internalType": "string",
          "name": "",
          "type": "string"
        }
      ],
      "name": "records",
      "outputs": [
        {
          "internalType": "string",
          "name": "",
          "type": "string"
        }
      ],
      "stateMutability": "view",
      "type": "function"
    },
    {
      "inputs": [
        {
          "internalType": "string",
          "name": "name",
          "type": "string"
        }
      ],
      "name": "register",
      "outputs": [],
      "stateMutability": "payable",
      "type": "function"
    },
    {
      "inputs": [
        {
          "internalType": "address",
          "name": "from",
          "type": "address"
        },
        {
          "internalType": "address",
          "name": "to",
          "type": "address"
        },
        {
          "internalType": "uint256",
          "name": "tokenId",
          "type": "uint256"
        }
      ],
      "name": "safeTransferFrom",
      "outputs": [],
      "stateMutability": "nonpayable",
      "type": "function"
    },
    {
      "inputs": [
        {
          "internalType": "address",
          "name": "from",
          "type": "address"
        },
        {
          "internalType": "address",
          "name": "to",
          "type": "address"
        },
        {
          "internalType": "uint256",
          "name": "tokenId",
          "type": "uint256"
        },
        {
          "internalType": "bytes",
          "name": "_data",
          "type": "bytes"
        }
      ],
      "name": "safeTransferFrom",
      "outputs": [],
      "stateMutability": "nonpayable",
      "type": "function"
    },
    {
      "inputs": [
        {
          "internalType": "address",
          "name": "operator",
          "type": "address"
        },
        {
          "internalType": "bool",
          "name": "approved",
          "type": "bool"
        }
      ],
      "name": "setApprovalForAll",
      "outputs": [],
      "stateMutability": "nonpayable",
      "type": "function"
    },
    {
      "inputs": [
        {
          "internalType": "string",
          "name": "name",
          "type": "string"
        },
        {
          "internalType": "string",
          "name": "website",
          "type": "string"
        }
      ],
      "name": "setRecord",
      "outputs": [],
      "stateMutability": "nonpayable",
      "type": "function"
    },
    {
      "inputs": [
        {
          "internalType": "bytes4",
          "name": "interfaceId",
          "type": "bytes4"
        }
      ],
      "name": "supportsInterface",
      "outputs": [
        {
          "internalType": "bool",
          "name": "",
          "type": "bool"
        }
      ],
      "stateMutability": "view",
      "type": "function"
    },
    {
      "inputs": [],
      "name": "symbol",
      "outputs": [
        {
          "internalType": "string",
          "name": "",
          "type": "string"
        }
      ],
      "stateMutability": "view",
      "type": "function"
    },
    {
      "inputs": [],
      "name": "tld",
      "outputs": [
        {
          "internalType": "string",
          "name": "",
          "type": "string"
        }
      ],
      "stateMutability": "view",
      "type": "function"
    },
    {
      "inputs": [
        {
          "internalType": "uint256",
          "name": "tokenId",
          "type": "uint256"
        }
      ],
      "name": "tokenURI",
      "outputs": [
        {
          "internalType": "string",
          "name": "",
          "type": "string"
        }
      ],
      "stateMutability": "view",
      "type": "function"
    },
    {
      "inputs": [
        {
          "internalType": "address",
          "name": "from",
          "type": "address"
        },
        {
          "internalType": "address",
          "name": "to",
          "type": "address"
        },
        {
          "internalType": "uint256",
          "name": "tokenId",
          "type": "uint256"
        }
      ],
      "name": "transferFrom",
      "outputs": [],
      "stateMutability": "nonpayable",
      "type": "function"
    }
  ],
  "bytecode": "0x6080604052604051806108a0016040528061086b815260200162004ddd61086b9139600990805190602001906200003892919062000287565b506040518060400160405280600d81526020017f3c2f746578743e3c2f7376673e00000000000000000000000000000000000000815250600a90805190602001906200008692919062000287565b5060405162005648380380620056488339818101604052810190620000ac9190620003a9565b6040518060400160405280601481526020017f5370617274616e204e616d6520536572766963650000000000000000000000008152506040518060400160405280600381526020017f534e53000000000000000000000000000000000000000000000000000000000081525081600090805190602001906200013092919062000287565b5080600190805190602001906200014992919062000287565b50505080600890805190602001906200016492919062000287565b50620001b16040518060400160405280601881526020017f2573206e616d652073657276696365206465706c6f796564000000000000000081525082620001b860201b6200175f1760201c565b50620005f6565b6200025a8282604051602401620001d19291906200042f565b6040516020818303038152906040527f4b5c4277000000000000000000000000000000000000000000000000000000007bffffffffffffffffffffffffffffffffffffffffffffffffffffffff19166020820180517bffffffffffffffffffffffffffffffffffffffffffffffffffffffff83818316178352505050506200025e60201b60201c565b5050565b60008151905060006a636f6e736f6c652e6c6f679050602083016000808483855afa5050505050565b82805462000295906200051b565b90600052602060002090601f016020900481019282620002b9576000855562000305565b82601f10620002d457805160ff191683800117855562000305565b8280016001018555821562000305579182015b8281111562000304578251825591602001919060010190620002e7565b5b50905062000314919062000318565b5090565b5b808211156200033357600081600090555060010162000319565b5090565b60006200034e620003488462000493565b6200046a565b9050828152602081018484840111156200036757600080fd5b62000374848285620004e5565b509392505050565b600082601f8301126200038e57600080fd5b8151620003a084826020860162000337565b91505092915050565b600060208284031215620003bc57600080fd5b600082015167ffffffffffffffff811115620003d757600080fd5b620003e5848285016200037c565b91505092915050565b6000620003fb82620004c9565b620004078185620004d4565b935062000419818560208601620004e5565b6200042481620005e5565b840191505092915050565b600060408201905081810360008301526200044b8185620003ee565b90508181036020830152620004618184620003ee565b90509392505050565b60006200047662000489565b905062000484828262000551565b919050565b6000604051905090565b600067ffffffffffffffff821115620004b157620004b0620005b6565b5b620004bc82620005e5565b9050602081019050919050565b600081519050919050565b600082825260208201905092915050565b60005b8381101562000505578082015181840152602081019050620004e8565b8381111562000515576000848401525b50505050565b600060028204905060018216806200053457607f821691505b602082108114156200054b576200054a62000587565b5b50919050565b6200055c82620005e5565b810181811067ffffffffffffffff821117156200057e576200057d620005b6565b5b80604052505050565b7f4e487b7100000000000000000000000000000000000000000000000000000000600052602260045260246000fd5b7f4e487b7100000000000000000000000000000000000000000000000000000000600052604160045260246000fd5b6000601f19601f8301169050919050565b6147d780620006066000396000f3fe6080604052600436106101355760003560e01c80636352211e116100ab578063bf40fac11161006f578063bf40fac114610470578063c1880a98146104ad578063c87b56dd146104d6578063e985e9c514610513578063f2c298be14610550578063fe2c61981461056c57610135565b80636352211e1461037957806370a08231146103b657806395d89b41146103f3578063a22cb4651461041e578063b88d4fde1461044757610135565b806323b872dd116100fd57806323b872dd14610245578063264492351461026e5780632d551432146102ab57806342842e0e146102d6578063541e771d146102ff57806362eef9e71461033c57610135565b806301ffc9a71461013a57806306fdde0314610177578063081812fc146101a2578063095ea7b3146101df57806311dd884514610208575b600080fd5b34801561014657600080fd5b50610161600480360381019061015c9190612fa6565b6105a9565b60405161016e91906137a3565b60405180910390f35b34801561018357600080fd5b5061018c61068b565b60405161019991906137be565b60405180910390f35b3480156101ae57600080fd5b506101c960048036038101906101c491906130f3565b61071d565b6040516101d6919061373c565b60405180910390f35b3480156101eb57600080fd5b5061020660048036038101906102019190612f6a565b6107a2565b005b34801561021457600080fd5b5061022f600480360381019061022a9190612ff8565b6108ba565b60405161023c91906137be565b60405180910390f35b34801561025157600080fd5b5061026c60048036038101906102679190612e64565b61096d565b005b34801561027a57600080fd5b50610295600480360381019061029091906130b2565b6109cd565b6040516102a2919061373c565b60405180910390f35b3480156102b757600080fd5b506102c0610a16565b6040516102cd91906137be565b60405180910390f35b3480156102e257600080fd5b506102fd60048036038101906102f89190612e64565b610aa4565b005b34801561030b57600080fd5b50610326600480360381019061032191906130b2565b610ac4565b60405161033391906137be565b60405180910390f35b34801561034857600080fd5b50610363600480360381019061035e91906130b2565b610b7a565b60405161037091906137a3565b60405180910390f35b34801561038557600080fd5b506103a0600480360381019061039b91906130f3565b610bb0565b6040516103ad919061373c565b60405180910390f35b3480156103c257600080fd5b506103dd60048036038101906103d89190612dff565b610c62565b6040516103ea9190613b21565b60405180910390f35b3480156103ff57600080fd5b50610408610d1a565b60405161041591906137be565b60405180910390f35b34801561042a57600080fd5b5061044560048036038101906104409190612f2e565b610dac565b005b34801561045357600080fd5b5061046e60048036038101906104699190612eb3565b610dc2565b005b34801561047c57600080fd5b5061049760048036038101906104929190612ff8565b610e24565b6040516104a4919061373c565b60405180910390f35b3480156104b957600080fd5b506104d460048036038101906104cf919061303d565b610e6f565b005b3480156104e257600080fd5b506104fd60048036038101906104f891906130f3565b61107d565b60405161050a91906137be565b60405180910390f35b34801561051f57600080fd5b5061053a60048036038101906105359190612e28565b6111cf565b60405161054791906137a3565b60405180910390f35b61056a60048036038101906105659190612ff8565b611263565b005b34801561057857600080fd5b50610593600480360381019061058e9190612ff8565b6116b9565b6040516105a09190613b21565b60405180910390f35b60007f80ac58cd000000000000000000000000000000000000000000000000000000007bffffffffffffffffffffffffffffffffffffffffffffffffffffffff1916827bffffffffffffffffffffffffffffffffffffffffffffffffffffffff1916148061067457507f5b5e139f000000000000000000000000000000000000000000000000000000007bffffffffffffffffffffffffffffffffffffffffffffffffffffffff1916827bffffffffffffffffffffffffffffffffffffffffffffffffffffffff1916145b806106845750610683826117fb565b5b9050919050565b60606000805461069a90613de6565b80601f01602080910402602001604051908101604052809291908181526020018280546106c690613de6565b80156107135780601f106106e857610100808354040283529160200191610713565b820191906000526020600020905b8154815290600101906020018083116106f657829003601f168201915b5050505050905090565b600061072882611865565b610767576040517f08c379a000000000000000000000000000000000000000000000000000000000815260040161075e90613a81565b60405180910390fd5b6004600083815260200190815260200160002060009054906101000a900473ffffffffffffffffffffffffffffffffffffffff169050919050565b60006107ad82610bb0565b90508073ffffffffffffffffffffffffffffffffffffffff168373ffffffffffffffffffffffffffffffffffffffff16141561081e576040517f08c379a000000000000000000000000000000000000000000000000000000000815260040161081590613ae1565b60405180910390fd5b8073ffffffffffffffffffffffffffffffffffffffff1661083d6118d1565b73ffffffffffffffffffffffffffffffffffffffff16148061086c575061086b816108666118d1565b6111cf565b5b6108ab576040517f08c379a00000000000000000000000000000000000000000000000000000000081526004016108a2906139a1565b60405180910390fd5b6108b583836118d9565b505050565b6060600c83836040516108ce92919061361e565b908152602001604051809103902080546108e790613de6565b80601f016020809104026020016040519081016040528092919081815260200182805461091390613de6565b80156109605780601f1061093557610100808354040283529160200191610960565b820191906000526020600020905b81548152906001019060200180831161094357829003601f168201915b5050505050905092915050565b61097e6109786118d1565b82611992565b6109bd576040517f08c379a00000000000000000000000000000000000000000000000000000000081526004016109b490613b01565b60405180910390fd5b6109c8838383611a70565b505050565b600b818051602081018201805184825260208301602085012081835280955050505050506000915054906101000a900473ffffffffffffffffffffffffffffffffffffffff1681565b60088054610a2390613de6565b80601f0160208091040260200160405190810160405280929190818152602001828054610a4f90613de6565b8015610a9c5780601f10610a7157610100808354040283529160200191610a9c565b820191906000526020600020905b815481529060010190602001808311610a7f57829003601f168201915b505050505081565b610abf83838360405180602001604052806000815250610dc2565b505050565b600c818051602081018201805184825260208301602085012081835280955050505050506000915090508054610af990613de6565b80601f0160208091040260200160405190810160405280929190818152602001828054610b2590613de6565b8015610b725780601f10610b4757610100808354040283529160200191610b72565b820191906000526020600020905b815481529060010190602001808311610b5557829003601f168201915b505050505081565b600d818051602081018201805184825260208301602085012081835280955050505050506000915054906101000a900460ff1681565b6000806002600084815260200190815260200160002060009054906101000a900473ffffffffffffffffffffffffffffffffffffffff169050600073ffffffffffffffffffffffffffffffffffffffff168173ffffffffffffffffffffffffffffffffffffffff161415610c59576040517f08c379a0000000000000000000000000000000000000000000000000000000008152600401610c50906139e1565b60405180910390fd5b80915050919050565b60008073ffffffffffffffffffffffffffffffffffffffff168273ffffffffffffffffffffffffffffffffffffffff161415610cd3576040517f08c379a0000000000000000000000000000000000000000000000000000000008152600401610cca906139c1565b60405180910390fd5b600360008373ffffffffffffffffffffffffffffffffffffffff1673ffffffffffffffffffffffffffffffffffffffff168152602001908152602001600020549050919050565b606060018054610d2990613de6565b80601f0160208091040260200160405190810160405280929190818152602001828054610d5590613de6565b8015610da25780601f10610d7757610100808354040283529160200191610da2565b820191906000526020600020905b815481529060010190602001808311610d8557829003601f168201915b5050505050905090565b610dbe610db76118d1565b8383611cd7565b5050565b610dd3610dcd6118d1565b83611992565b610e12576040517f08c379a0000000000000000000000000000000000000000000000000000000008152600401610e0990613b01565b60405180910390fd5b610e1e84848484611e44565b50505050565b6000600b8383604051610e3892919061361e565b908152602001604051809103902060009054906101000a900473ffffffffffffffffffffffffffffffffffffffff16905092915050565b3373ffffffffffffffffffffffffffffffffffffffff16600b8585604051610e9892919061361e565b908152602001604051809103902060009054906101000a900473ffffffffffffffffffffffffffffffffffffffff1673ffffffffffffffffffffffffffffffffffffffff1614610f1d576040517f08c379a0000000000000000000000000000000000000000000000000000000008152600401610f1490613a61565b60405180910390fd5b600d8282604051610f2f92919061361e565b908152602001604051809103902060009054906101000a900460ff1615610f8b576040517f08c379a0000000000000000000000000000000000000000000000000000000008152600401610f8290613941565b60405180910390fd5b8181600c8686604051610f9f92919061361e565b90815260200160405180910390209190610fba929190612b53565b506001600d8383604051610fcf92919061361e565b908152602001604051809103902060006101000a81548160ff0219169083151502179055506110776040518060400160405280601981526020017f57656273697465206973206d617070656420686572653a25730000000000000081525083838080601f016020809104026020016040519081016040528093929190818152602001838380828437600081840152601f19601f8201169050808301925050505050505061175f565b50505050565b606061108882611865565b6110c7576040517f08c379a00000000000000000000000000000000000000000000000000000000081526004016110be90613a41565b60405180910390fd5b60006006600084815260200190815260200160002080546110e790613de6565b80601f016020809104026020016040519081016040528092919081815260200182805461111390613de6565b80156111605780601f1061113557610100808354040283529160200191611160565b820191906000526020600020905b81548152906001019060200180831161114357829003601f168201915b505050505090506000611171611ea0565b90506000815114156111875781925050506111ca565b6000825111156111bc5780826040516020016111a4929190613668565b604051602081830303815290604052925050506111ca565b6111c584611eb7565b925050505b919050565b6000600560008473ffffffffffffffffffffffffffffffffffffffff1673ffffffffffffffffffffffffffffffffffffffff16815260200190815260200160002060008373ffffffffffffffffffffffffffffffffffffffff1673ffffffffffffffffffffffffffffffffffffffff16815260200190815260200160002060009054906101000a900460ff16905092915050565b600073ffffffffffffffffffffffffffffffffffffffff16600b838360405161128d92919061361e565b908152602001604051809103902060009054906101000a900473ffffffffffffffffffffffffffffffffffffffff1673ffffffffffffffffffffffffffffffffffffffff1614611312576040517f08c379a000000000000000000000000000000000000000000000000000000000815260040161130990613981565b60405180910390fd5b600061131e83836116b9565b905080341015611363576040517f08c379a000000000000000000000000000000000000000000000000000000000815260040161135a90613ac1565b60405180910390fd5b60008383600860405160200161137b93929190613637565b60405160208183030381529060405290506000600982600a6040516020016113a59392919061368c565b604051602081830303815290604052905060006113c26007611f5e565b9050600061141387878080601f016020809104026020016040519081016040528093929190818152602001838380828437600081840152601f19601f82011690508083019250505050505050611f6c565b9050600061142082612147565b90506115146040518060600160405280602d8152602001614775602d913989898080601f016020809104026020016040519081016040528093929190818152602001838380828437600081840152601f19601f820116905080830192505050505050506008805461149090613de6565b80601f01602080910402602001604051908101604052809291908181526020018280546114bc90613de6565b80156115095780601f106114de57610100808354040283529160200191611509565b820191906000526020600020905b8154815290600101906020018083116114ec57829003601f168201915b5050505050866122f4565b600061154a8661152387612396565b84604051602001611536939291906136bd565b604051602081830303815290604052612396565b905060008160405160200161155f919061371a565b60405160208183030381529060405290506115916040518060600160405280603981526020016146c360399139612554565b6115d06040518060400160405280600e81526020017f46696e616c20746f6b656e5552490000000000000000000000000000000000008152508261175f565b6115f16040518060600160405280603981526020016146fc60399139612554565b6115fb33866125ed565b611605858261260b565b33600b8b8b60405161161892919061361e565b908152602001604051809103902060006101000a81548173ffffffffffffffffffffffffffffffffffffffff021916908373ffffffffffffffffffffffffffffffffffffffff1602179055506116a36040518060400160405280601b81526020017f2573206861732072656769737465726564206120646f6d61696e2100000000008152503361267f565b6116ad600761271b565b50505050505050505050565b60008061170984848080601f016020809104026020016040519081016040528093929190818152602001838380828437600081840152601f19601f82011690508083019250505050505050611f6c565b90506000811161171857600080fd5b6003811415611732576702c68af0bb140000915050611759565b600481141561174c57670429d069189e0000915050611759565b67016345785d8a00009150505b92915050565b6117f78282604051602401611775929190613810565b6040516020818303038152906040527f4b5c4277000000000000000000000000000000000000000000000000000000007bffffffffffffffffffffffffffffffffffffffffffffffffffffffff19166020820180517bffffffffffffffffffffffffffffffffffffffffffffffffffffffff8381831617835250505050612731565b5050565b60007f01ffc9a7000000000000000000000000000000000000000000000000000000007bffffffffffffffffffffffffffffffffffffffffffffffffffffffff1916827bffffffffffffffffffffffffffffffffffffffffffffffffffffffff1916149050919050565b60008073ffffffffffffffffffffffffffffffffffffffff166002600084815260200190815260200160002060009054906101000a900473ffffffffffffffffffffffffffffffffffffffff1673ffffffffffffffffffffffffffffffffffffffff1614159050919050565b600033905090565b816004600083815260200190815260200160002060006101000a81548173ffffffffffffffffffffffffffffffffffffffff021916908373ffffffffffffffffffffffffffffffffffffffff160217905550808273ffffffffffffffffffffffffffffffffffffffff1661194c83610bb0565b73ffffffffffffffffffffffffffffffffffffffff167f8c5be1e5ebec7d5bd14f71427d1e84f3dd0314c0f7b2291e5b200ac8c7c3b92560405160405180910390a45050565b600061199d82611865565b6119dc576040517f08c379a00000000000000000000000000000000000000000000000000000000081526004016119d390613961565b60405180910390fd5b60006119e783610bb0565b90508073ffffffffffffffffffffffffffffffffffffffff168473ffffffffffffffffffffffffffffffffffffffff161480611a295750611a2881856111cf565b5b80611a6757508373ffffffffffffffffffffffffffffffffffffffff16611a4f8461071d565b73ffffffffffffffffffffffffffffffffffffffff16145b91505092915050565b8273ffffffffffffffffffffffffffffffffffffffff16611a9082610bb0565b73ffffffffffffffffffffffffffffffffffffffff1614611ae6576040517f08c379a0000000000000000000000000000000000000000000000000000000008152600401611add906138c1565b60405180910390fd5b600073ffffffffffffffffffffffffffffffffffffffff168273ffffffffffffffffffffffffffffffffffffffff161415611b56576040517f08c379a0000000000000000000000000000000000000000000000000000000008152600401611b4d90613901565b60405180910390fd5b611b6183838361275a565b611b6c6000826118d9565b6001600360008573ffffffffffffffffffffffffffffffffffffffff1673ffffffffffffffffffffffffffffffffffffffff1681526020019081526020016000206000828254611bbc9190613cfc565b925050819055506001600360008473ffffffffffffffffffffffffffffffffffffffff1673ffffffffffffffffffffffffffffffffffffffff1681526020019081526020016000206000828254611c139190613c1b565b92505081905550816002600083815260200190815260200160002060006101000a81548173ffffffffffffffffffffffffffffffffffffffff021916908373ffffffffffffffffffffffffffffffffffffffff160217905550808273ffffffffffffffffffffffffffffffffffffffff168473ffffffffffffffffffffffffffffffffffffffff167fddf252ad1be2c89b69c2b068fc378daa952ba7f163c4a11628f55a4df523b3ef60405160405180910390a4611cd283838361275f565b505050565b8173ffffffffffffffffffffffffffffffffffffffff168373ffffffffffffffffffffffffffffffffffffffff161415611d46576040517f08c379a0000000000000000000000000000000000000000000000000000000008152600401611d3d90613921565b60405180910390fd5b80600560008573ffffffffffffffffffffffffffffffffffffffff1673ffffffffffffffffffffffffffffffffffffffff16815260200190815260200160002060008473ffffffffffffffffffffffffffffffffffffffff1673ffffffffffffffffffffffffffffffffffffffff16815260200190815260200160002060006101000a81548160ff0219169083151502179055508173ffffffffffffffffffffffffffffffffffffffff168373ffffffffffffffffffffffffffffffffffffffff167f17307eab39ab6107e8899845ad3d59bd9653f200f220920489ca2b5937696c3183604051611e3791906137a3565b60405180910390a3505050565b611e4f848484611a70565b611e5b84848484612764565b611e9a576040517f08c379a0000000000000000000000000000000000000000000000000000000008152600401611e91906138a1565b60405180910390fd5b50505050565b606060405180602001604052806000815250905090565b6060611ec282611865565b611f01576040517f08c379a0000000000000000000000000000000000000000000000000000000008152600401611ef890613aa1565b60405180910390fd5b6000611f0b611ea0565b90506000815111611f2b5760405180602001604052806000815250611f56565b80611f3584612147565b604051602001611f46929190613668565b6040516020818303038152906040525b915050919050565b600081600001549050919050565b60008060008084519050600092505b8082101561213c576000858381518110611fbe577f4e487b7100000000000000000000000000000000000000000000000000000000600052603260045260246000fd5b602001015160f81c60f81b9050608060f81b817effffffffffffffffffffffffffffffffffffffffffffffffffffffffffffff1916101561200d576001836120069190613c1b565b9250612128565b60e060f81b817effffffffffffffffffffffffffffffffffffffffffffffffffffffffffffff1916101561204f576002836120489190613c1b565b9250612127565b60f060f81b817effffffffffffffffffffffffffffffffffffffffffffffffffffffffffffff191610156120915760038361208a9190613c1b565b9250612126565b60f8801b817effffffffffffffffffffffffffffffffffffffffffffffffffffffffffffff191610156120d2576004836120cb9190613c1b565b9250612125565b60fc60f81b817effffffffffffffffffffffffffffffffffffffffffffffffffffffffffffff191610156121145760058361210d9190613c1b565b9250612124565b6006836121219190613c1b565b92505b5b5b5b5b50828061213490613e49565b935050611f7b565b829350505050919050565b6060600082141561218f576040518060400160405280600181526020017f300000000000000000000000000000000000000000000000000000000000000081525090506122ef565b600082905060005b600082146121c15780806121aa90613e49565b915050600a826121ba9190613c71565b9150612197565b60008167ffffffffffffffff811115612203577f4e487b7100000000000000000000000000000000000000000000000000000000600052604160045260246000fd5b6040519080825280601f01601f1916602001820160405280156122355781602001600182028036833780820191505090505b5090505b600085146122e85760018261224e9190613cfc565b9150600a8561225d9190613e92565b60306122699190613c1b565b60f81b8183815181106122a5577f4e487b7100000000000000000000000000000000000000000000000000000000600052603260045260246000fd5b60200101907effffffffffffffffffffffffffffffffffffffffffffffffffffffffffffff1916908160001a905350600a856122e19190613c71565b9450612239565b8093505050505b919050565b6123908484848460405160240161230e9493929190613847565b6040516020818303038152906040527f9fd009f5000000000000000000000000000000000000000000000000000000007bffffffffffffffffffffffffffffffffffffffffffffffffffffffff19166020820180517bffffffffffffffffffffffffffffffffffffffffffffffffffffffff8381831617835250505050612731565b50505050565b606060008251905060008114156123bf576040518060200160405280600081525091505061254f565b600060036002836123d09190613c1b565b6123da9190613c71565b60046123e69190613ca2565b905060006020826123f79190613c1b565b67ffffffffffffffff811115612436577f4e487b7100000000000000000000000000000000000000000000000000000000600052604160045260246000fd5b6040519080825280601f01601f1916602001820160405280156124685781602001600182028036833780820191505090505b5090506000604051806060016040528060408152602001614735604091399050600181016020830160005b8681101561250c5760038101905062ffffff818a015116603f8160121c168401518060081b905060ff603f83600c1c1686015116810190508060081b905060ff603f8360061c1686015116810190508060081b905060ff603f831686015116810190508060e01b90508084526004840193505050612493565b506003860660018114612526576002811461253657612541565b613d3d60f01b6002830352612541565b603d60f81b60018303525b508484525050819450505050505b919050565b6125ea8160405160240161256891906137be565b6040516020818303038152906040527f41304fac000000000000000000000000000000000000000000000000000000007bffffffffffffffffffffffffffffffffffffffffffffffffffffffff19166020820180517bffffffffffffffffffffffffffffffffffffffffffffffffffffffff8381831617835250505050612731565b50565b6126078282604051806020016040528060008152506128fb565b5050565b61261482611865565b612653576040517f08c379a000000000000000000000000000000000000000000000000000000000815260040161264a90613a01565b60405180910390fd5b8060066000848152602001908152602001600020908051906020019061267a929190612bd9565b505050565b61271782826040516024016126959291906137e0565b6040516020818303038152906040527f319af333000000000000000000000000000000000000000000000000000000007bffffffffffffffffffffffffffffffffffffffffffffffffffffffff19166020820180517bffffffffffffffffffffffffffffffffffffffffffffffffffffffff8381831617835250505050612731565b5050565b6001816000016000828254019250508190555050565b60008151905060006a636f6e736f6c652e6c6f679050602083016000808483855afa5050505050565b505050565b505050565b60006127858473ffffffffffffffffffffffffffffffffffffffff16612956565b156128ee578373ffffffffffffffffffffffffffffffffffffffff1663150b7a026127ae6118d1565b8786866040518563ffffffff1660e01b81526004016127d09493929190613757565b602060405180830381600087803b1580156127ea57600080fd5b505af192505050801561281b57506040513d601f19601f820116820180604052508101906128189190612fcf565b60015b61289e573d806000811461284b576040519150601f19603f3d011682016040523d82523d6000602084013e612850565b606091505b50600081511415612896576040517f08c379a000000000000000000000000000000000000000000000000000000000815260040161288d906138a1565b60405180910390fd5b805181602001fd5b63150b7a0260e01b7bffffffffffffffffffffffffffffffffffffffffffffffffffffffff1916817bffffffffffffffffffffffffffffffffffffffffffffffffffffffff1916149150506128f3565b600190505b949350505050565b6129058383612979565b6129126000848484612764565b612951576040517f08c379a0000000000000000000000000000000000000000000000000000000008152600401612948906138a1565b60405180910390fd5b505050565b6000808273ffffffffffffffffffffffffffffffffffffffff163b119050919050565b600073ffffffffffffffffffffffffffffffffffffffff168273ffffffffffffffffffffffffffffffffffffffff1614156129e9576040517f08c379a00000000000000000000000000000000000000000000000000000000081526004016129e090613a21565b60405180910390fd5b6129f281611865565b15612a32576040517f08c379a0000000000000000000000000000000000000000000000000000000008152600401612a29906138e1565b60405180910390fd5b612a3e6000838361275a565b6001600360008473ffffffffffffffffffffffffffffffffffffffff1673ffffffffffffffffffffffffffffffffffffffff1681526020019081526020016000206000828254612a8e9190613c1b565b92505081905550816002600083815260200190815260200160002060006101000a81548173ffffffffffffffffffffffffffffffffffffffff021916908373ffffffffffffffffffffffffffffffffffffffff160217905550808273ffffffffffffffffffffffffffffffffffffffff16600073ffffffffffffffffffffffffffffffffffffffff167fddf252ad1be2c89b69c2b068fc378daa952ba7f163c4a11628f55a4df523b3ef60405160405180910390a4612b4f6000838361275f565b5050565b828054612b5f90613de6565b90600052602060002090601f016020900481019282612b815760008555612bc8565b82601f10612b9a57803560ff1916838001178555612bc8565b82800160010185558215612bc8579182015b82811115612bc7578235825591602001919060010190612bac565b5b509050612bd59190612c5f565b5090565b828054612be590613de6565b90600052602060002090601f016020900481019282612c075760008555612c4e565b82601f10612c2057805160ff1916838001178555612c4e565b82800160010185558215612c4e579182015b82811115612c4d578251825591602001919060010190612c32565b5b509050612c5b9190612c5f565b5090565b5b80821115612c78576000816000905550600101612c60565b5090565b6000612c8f612c8a84613b61565b613b3c565b905082815260208101848484011115612ca757600080fd5b612cb2848285613da4565b509392505050565b6000612ccd612cc884613b92565b613b3c565b905082815260208101848484011115612ce557600080fd5b612cf0848285613da4565b509392505050565b600081359050612d0781614666565b92915050565b600081359050612d1c8161467d565b92915050565b600081359050612d3181614694565b92915050565b600081519050612d4681614694565b92915050565b600082601f830112612d5d57600080fd5b8135612d6d848260208601612c7c565b91505092915050565b60008083601f840112612d8857600080fd5b8235905067ffffffffffffffff811115612da157600080fd5b602083019150836001820283011115612db957600080fd5b9250929050565b600082601f830112612dd157600080fd5b8135612de1848260208601612cba565b91505092915050565b600081359050612df9816146ab565b92915050565b600060208284031215612e1157600080fd5b6000612e1f84828501612cf8565b91505092915050565b60008060408385031215612e3b57600080fd5b6000612e4985828601612cf8565b9250506020612e5a85828601612cf8565b9150509250929050565b600080600060608486031215612e7957600080fd5b6000612e8786828701612cf8565b9350506020612e9886828701612cf8565b9250506040612ea986828701612dea565b9150509250925092565b60008060008060808587031215612ec957600080fd5b6000612ed787828801612cf8565b9450506020612ee887828801612cf8565b9350506040612ef987828801612dea565b925050606085013567ffffffffffffffff811115612f1657600080fd5b612f2287828801612d4c565b91505092959194509250565b60008060408385031215612f4157600080fd5b6000612f4f85828601612cf8565b9250506020612f6085828601612d0d565b9150509250929050565b60008060408385031215612f7d57600080fd5b6000612f8b85828601612cf8565b9250506020612f9c85828601612dea565b9150509250929050565b600060208284031215612fb857600080fd5b6000612fc684828501612d22565b91505092915050565b600060208284031215612fe157600080fd5b6000612fef84828501612d37565b91505092915050565b6000806020838503121561300b57600080fd5b600083013567ffffffffffffffff81111561302557600080fd5b61303185828601612d76565b92509250509250929050565b6000806000806040858703121561305357600080fd5b600085013567ffffffffffffffff81111561306d57600080fd5b61307987828801612d76565b9450945050602085013567ffffffffffffffff81111561309857600080fd5b6130a487828801612d76565b925092505092959194509250565b6000602082840312156130c457600080fd5b600082013567ffffffffffffffff8111156130de57600080fd5b6130ea84828501612dc0565b91505092915050565b60006020828403121561310557600080fd5b600061311384828501612dea565b91505092915050565b61312581613d30565b82525050565b61313481613d42565b82525050565b600061314582613bd8565b61314f8185613bee565b935061315f818560208601613db3565b61316881613f7f565b840191505092915050565b600061317f8385613c10565b935061318c838584613da4565b82840190509392505050565b60006131a382613be3565b6131ad8185613bff565b93506131bd818560208601613db3565b6131c681613f7f565b840191505092915050565b60006131dc82613be3565b6131e68185613c10565b93506131f6818560208601613db3565b80840191505092915050565b6000815461320f81613de6565b6132198186613c10565b94506001821660008114613234576001811461324557613278565b60ff19831686528186019350613278565b61324e85613bc3565b60005b8381101561327057815481890152600182019150602081019050613251565b838801955050505b50505092915050565b600061328e603283613bff565b915061329982613f90565b604082019050919050565b60006132b1602583613bff565b91506132bc82613fdf565b604082019050919050565b60006132d4601c83613bff565b91506132df8261402e565b602082019050919050565b60006132f7602483613bff565b915061330282614057565b604082019050919050565b600061331a601983613bff565b9150613325826140a6565b602082019050919050565b600061333d602583613bff565b9150613348826140cf565b604082019050919050565b6000613360602c83613bff565b915061336b8261411e565b604082019050919050565b6000613383602883613bff565b915061338e8261416d565b604082019050919050565b60006133a6603883613bff565b91506133b1826141bc565b604082019050919050565b60006133c9600183613c10565b91506133d48261420b565b600182019050919050565b60006133ec602a83613bff565b91506133f782614234565b604082019050919050565b600061340f602983613bff565b915061341a82614283565b604082019050919050565b6000613432602e83613bff565b915061343d826142d2565b604082019050919050565b6000613455600283613c10565b915061346082614321565b600282019050919050565b6000613478602083613bff565b91506134838261434a565b602082019050919050565b600061349b603183613bff565b91506134a682614373565b604082019050919050565b60006134be602e83613bff565b91506134c9826143c2565b604082019050919050565b60006134e1602c83613bff565b91506134ec82614411565b604082019050919050565b6000613504605e83613c10565b915061350f82614460565b605e82019050919050565b6000613527602f83613bff565b9150613532826144d5565b604082019050919050565b600061354a601583613bff565b915061355582614524565b602082019050919050565b600061356d600a83613c10565b91506135788261454d565b600a82019050919050565b6000613590602183613bff565b915061359b82614576565b604082019050919050565b60006135b3601d83613c10565b91506135be826145c5565b601d82019050919050565b60006135d6600c83613c10565b91506135e1826145ee565b600c82019050919050565b60006135f9603183613bff565b915061360482614617565b604082019050919050565b61361881613d9a565b82525050565b600061362b828486613173565b91508190509392505050565b6000613644828587613173565b915061364f826133bc565b915061365b8284613202565b9150819050949350505050565b600061367482856131d1565b915061368082846131d1565b91508190509392505050565b60006136988286613202565b91506136a482856131d1565b91506136b08284613202565b9150819050949350505050565b60006136c882613560565b91506136d482866131d1565b91506136df826134f7565b91506136eb82856131d1565b91506136f6826135c9565b915061370282846131d1565b915061370d82613448565b9150819050949350505050565b6000613725826135a6565b915061373182846131d1565b915081905092915050565b6000602082019050613751600083018461311c565b92915050565b600060808201905061376c600083018761311c565b613779602083018661311c565b613786604083018561360f565b8181036060830152613798818461313a565b905095945050505050565b60006020820190506137b8600083018461312b565b92915050565b600060208201905081810360008301526137d88184613198565b905092915050565b600060408201905081810360008301526137fa8185613198565b9050613809602083018461311c565b9392505050565b6000604082019050818103600083015261382a8185613198565b9050818103602083015261383e8184613198565b90509392505050565b600060808201905081810360008301526138618187613198565b905081810360208301526138758186613198565b905081810360408301526138898185613198565b9050613898606083018461360f565b95945050505050565b600060208201905081810360008301526138ba81613281565b9050919050565b600060208201905081810360008301526138da816132a4565b9050919050565b600060208201905081810360008301526138fa816132c7565b9050919050565b6000602082019050818103600083015261391a816132ea565b9050919050565b6000602082019050818103600083015261393a8161330d565b9050919050565b6000602082019050818103600083015261395a81613330565b9050919050565b6000602082019050818103600083015261397a81613353565b9050919050565b6000602082019050818103600083015261399a81613376565b9050919050565b600060208201905081810360008301526139ba81613399565b9050919050565b600060208201905081810360008301526139da816133df565b9050919050565b600060208201905081810360008301526139fa81613402565b9050919050565b60006020820190508181036000830152613a1a81613425565b9050919050565b60006020820190508181036000830152613a3a8161346b565b9050919050565b60006020820190508181036000830152613a5a8161348e565b9050919050565b60006020820190508181036000830152613a7a816134b1565b9050919050565b60006020820190508181036000830152613a9a816134d4565b9050919050565b60006020820190508181036000830152613aba8161351a565b9050919050565b60006020820190508181036000830152613ada8161353d565b9050919050565b60006020820190508181036000830152613afa81613583565b9050919050565b60006020820190508181036000830152613b1a816135ec565b9050919050565b6000602082019050613b36600083018461360f565b92915050565b6000613b46613b57565b9050613b528282613e18565b919050565b6000604051905090565b600067ffffffffffffffff821115613b7c57613b7b613f50565b5b613b8582613f7f565b9050602081019050919050565b600067ffffffffffffffff821115613bad57613bac613f50565b5b613bb682613f7f565b9050602081019050919050565b60008190508160005260206000209050919050565b600081519050919050565b600081519050919050565b600082825260208201905092915050565b600082825260208201905092915050565b600081905092915050565b6000613c2682613d9a565b9150613c3183613d9a565b9250827fffffffffffffffffffffffffffffffffffffffffffffffffffffffffffffffff03821115613c6657613c65613ec3565b5b828201905092915050565b6000613c7c82613d9a565b9150613c8783613d9a565b925082613c9757613c96613ef2565b5b828204905092915050565b6000613cad82613d9a565b9150613cb883613d9a565b9250817fffffffffffffffffffffffffffffffffffffffffffffffffffffffffffffffff0483118215151615613cf157613cf0613ec3565b5b828202905092915050565b6000613d0782613d9a565b9150613d1283613d9a565b925082821015613d2557613d24613ec3565b5b828203905092915050565b6000613d3b82613d7a565b9050919050565b60008115159050919050565b60007fffffffff0000000000000000000000000000000000000000000000000000000082169050919050565b600073ffffffffffffffffffffffffffffffffffffffff82169050919050565b6000819050919050565b82818337600083830152505050565b60005b83811015613dd1578082015181840152602081019050613db6565b83811115613de0576000848401525b50505050565b60006002820490506001821680613dfe57607f821691505b60208210811415613e1257613e11613f21565b5b50919050565b613e2182613f7f565b810181811067ffffffffffffffff82111715613e4057613e3f613f50565b5b80604052505050565b6000613e5482613d9a565b91507fffffffffffffffffffffffffffffffffffffffffffffffffffffffffffffffff821415613e8757613e86613ec3565b5b600182019050919050565b6000613e9d82613d9a565b9150613ea883613d9a565b925082613eb857613eb7613ef2565b5b828206905092915050565b7f4e487b7100000000000000000000000000000000000000000000000000000000600052601160045260246000fd5b7f4e487b7100000000000000000000000000000000000000000000000000000000600052601260045260246000fd5b7f4e487b7100000000000000000000000000000000000000000000000000000000600052602260045260246000fd5b7f4e487b7100000000000000000000000000000000000000000000000000000000600052604160045260246000fd5b6000601f19601f8301169050919050565b7f4552433732313a207472616e7366657220746f206e6f6e20455243373231526560008201527f63656976657220696d706c656d656e7465720000000000000000000000000000602082015250565b7f4552433732313a207472616e736665722066726f6d20696e636f72726563742060008201527f6f776e6572000000000000000000000000000000000000000000000000000000602082015250565b7f4552433732313a20746f6b656e20616c7265616479206d696e74656400000000600082015250565b7f4552433732313a207472616e7366657220746f20746865207a65726f2061646460008201527f7265737300000000000000000000000000000000000000000000000000000000602082015250565b7f4552433732313a20617070726f766520746f2063616c6c657200000000000000600082015250565b7f4f6f7073212054686973207765627369746520697320616c726561647920696e60008201527f207573652e000000000000000000000000000000000000000000000000000000602082015250565b7f4552433732313a206f70657261746f7220717565727920666f72206e6f6e657860008201527f697374656e7420746f6b656e0000000000000000000000000000000000000000602082015250565b7f4f6f707321205468697320646f6d61696e20697320616c72656164792072656760008201527f697374657265642e000000000000000000000000000000000000000000000000602082015250565b7f4552433732313a20617070726f76652063616c6c6572206973206e6f74206f7760008201527f6e6572206e6f7220617070726f76656420666f7220616c6c0000000000000000602082015250565b7f2e00000000000000000000000000000000000000000000000000000000000000600082015250565b7f4552433732313a2062616c616e636520717565727920666f7220746865207a6560008201527f726f206164647265737300000000000000000000000000000000000000000000602082015250565b7f4552433732313a206f776e657220717565727920666f72206e6f6e657869737460008201527f656e7420746f6b656e0000000000000000000000000000000000000000000000602082015250565b7f45524337323155524953746f726167653a2055524920736574206f66206e6f6e60008201527f6578697374656e7420746f6b656e000000000000000000000000000000000000602082015250565b7f227d000000000000000000000000000000000000000000000000000000000000600082015250565b7f4552433732313a206d696e7420746f20746865207a65726f2061646472657373600082015250565b7f45524337323155524953746f726167653a2055524920717565727920666f722060008201527f6e6f6e6578697374656e7420746f6b656e000000000000000000000000000000602082015250565b7f4f6f70732120596f7520646f206e6f7420686176652061636365737320746f2060008201527f746869732066756e6374696f6e2e000000000000000000000000000000000000602082015250565b7f4552433732313a20617070726f76656420717565727920666f72206e6f6e657860008201527f697374656e7420746f6b656e0000000000000000000000000000000000000000602082015250565b7f222c20226465736372697074696f6e223a20224120646f6d61696e206f6e207460008201527f6865205370617274616e206e616d652073657276696365222c2022696d61676560208201527f223a2022646174613a696d6167652f7376672b786d6c3b6261736536342c0000604082015250565b7f4552433732314d657461646174613a2055524920717565727920666f72206e6f60008201527f6e6578697374656e7420746f6b656e0000000000000000000000000000000000602082015250565b7f4e6f7420656e6f756768204d6174696320706169640000000000000000000000600082015250565b7f7b226e616d65223a202200000000000000000000000000000000000000000000600082015250565b7f4552433732313a20617070726f76616c20746f2063757272656e74206f776e6560008201527f7200000000000000000000000000000000000000000000000000000000000000602082015250565b7f646174613a6170706c69636174696f6e2f6a736f6e3b6261736536342c000000600082015250565b7f222c226c656e677468223a220000000000000000000000000000000000000000600082015250565b7f4552433732313a207472616e736665722063616c6c6572206973206e6f74206f60008201527f776e6572206e6f7220617070726f766564000000000000000000000000000000602082015250565b61466f81613d30565b811461467a57600080fd5b50565b61468681613d42565b811461469157600080fd5b50565b61469d81613d4e565b81146146a857600080fd5b50565b6146b481613d9a565b81146146bf57600080fd5b5056fe0a2d2d2d2d2d2d2d2d2d2d2d2d2d2d2d2d2d2d2d2d2d2d2d2d2d2d2d2d2d2d2d2d2d2d2d2d2d2d2d2d2d2d2d2d2d2d2d2d2d2d2d2d2d2d2d2d2d2d2d2d2d2d2d2d2d2d2d2d2d2d2d2d2d2d2d2d2d2d2d2d2d2d2d2d2d2d2d2d2d2d2d2d2d2d2d2d2d2d2d2d2d2d2d2d2d2d2d2d2d2d2d2d0a4142434445464748494a4b4c4d4e4f505152535455565758595a6162636465666768696a6b6c6d6e6f707172737475767778797a303132333435363738392b2f5265676973746572696e672025732e2573206f6e20636f6e7472616374207769746820746f6b656e4944202564a2646970667358221220a7e0f1306bf011d4ed4419f0cc5fa99d323c56112c16cb7b304c0fb4e531b16f64736f6c634300080400333c73766720786d6c6e733d22687474703a2f2f7777772e77332e6f72672f323030302f737667222077696474683d2232373022206865696768743d22323730222066696c6c3d226e6f6e65223e3c706174682066696c6c3d2275726c282342292220643d224d302030683237307632373048307a222f3e3c646566733e3c66696c7465722069643d22412220636f6c6f722d696e746572706f6c6174696f6e2d66696c746572733d2273524742222066696c746572556e6974733d227573657253706163654f6e55736522206865696768743d22323730222077696474683d22323730223e3c666544726f70536861646f772064783d2230222064793d22312220737464446576696174696f6e3d22322220666c6f6f642d6f7061636974793d222e323235222077696474683d223230302522206865696768743d2232303025222f3e3c2f66696c7465723e3c2f646566733e3c7061746820643d224d37322e3836332034322e393439632d2e3636382d2e3338372d312e3432362d2e35392d322e3139372d2e3539732d312e3532392e3230342d322e3139372e35396c2d31302e30383120362e3033322d362e383520332e3933342d31302e30383120362e303332632d2e3636382e3338372d312e3432362e35392d322e3139372e3539732d312e3532392d2e3230342d322e3139372d2e35396c2d382e3031332d342e37323161342e353220342e35322030203020312d312e3538392d312e363136632d2e3338342d2e3636352d2e3539342d312e3431382d2e3630382d322e313837762d392e3331632d2e3031332d2e3737352e3138352d312e3533382e3537322d322e32303861342e323520342e323520302030203120312e3632352d312e3539356c372e3838342d342e3539632e3636382d2e33383720312e3432362d2e353920322e3139372d2e353973312e3532392e32303420322e3139372e35396c372e38383420342e353961342e353220342e353220302030203120312e35383920312e363136632e3338342e3636352e35393420312e3431382e36303820322e31383776362e3033326c362e38352d342e303635762d362e303332632e3031332d2e3737352d2e3138352d312e3533382d2e3537322d322e32303861342e323520342e32352030203020302d312e3632352d312e3539354c34312e3435362032342e3539632d2e3636382d2e3338372d312e3432362d2e35392d322e3139372d2e3539732d312e3532392e3230342d322e3139372e35396c2d31342e38363420382e36353561342e323520342e32352030203020302d312e36323520312e353935632d2e3338372e36372d2e35383520312e3433342d2e35373220322e3230387631372e343431632d2e3031332e3737352e31383520312e3533382e35373220322e32303861342e323520342e323520302030203020312e36323520312e3539356c31342e38363420382e363535632e3636382e33383720312e3432362e353920322e3139372e353973312e3532392d2e32303420322e3139372d2e35396c31302e3038312d352e39303120362e38352d342e3036352031302e3038312d352e393031632e3636382d2e33383720312e3432362d2e353920322e3139372d2e353973312e3532392e32303420322e3139372e35396c372e38383420342e353961342e353220342e353220302030203120312e35383920312e363136632e3338342e3636352e35393420312e3431382e36303820322e31383776392e333131632e3031332e3737352d2e31383520312e3533382d2e35373220322e32303861342e323520342e32352030203020312d312e36323520312e3539356c2d372e38383420342e373231632d2e3636382e3338372d312e3432362e35392d322e3139372e3539732d312e3532392d2e3230342d322e3139372d2e35396c2d372e3838342d342e353961342e353220342e35322030203020312d312e3538392d312e363136632d2e3338352d2e3636352d2e3539342d312e3431382d2e3630382d322e313837762d362e3033326c2d362e383520342e30363576362e303332632d2e3031332e3737352e31383520312e3533382e35373220322e32303861342e323520342e323520302030203020312e36323520312e3539356c31342e38363420382e363535632e3636382e33383720312e3432362e353920322e3139372e353973312e3532392d2e32303420322e3139372d2e35396c31342e3836342d382e363535632e3635372d2e33393420312e3230342d2e393520312e3538392d312e363136732e3539342d312e3431382e3630392d322e3138375635352e353338632e3031332d2e3737352d2e3138352d312e3533382d2e3537322d322e32303861342e323520342e32352030203020302d312e3632352d312e3539356c2d31342e3939332d382e3738367a222066696c6c3d2223666666222f3e3c646566733e3c6c696e6561724772616469656e742069643d2242222078313d2230222079313d2230222078323d22323730222079323d2232373022206772616469656e74556e6974733d227573657253706163654f6e557365223e3c73746f702073746f702d636f6c6f723d2223636235656565222f3e3c73746f70206f66667365743d2231222073746f702d636f6c6f723d2223306364376534222073746f702d6f7061636974793d222e3939222f3e3c2f6c696e6561724772616469656e743e3c2f646566733e3c7465787420783d2233322e352220793d223233312220666f6e742d73697a653d223237222066696c6c3d2223666666222066696c7465723d2275726c282341292220666f6e742d66616d696c793d22506c7573204a616b617274612053616e732c44656a6156752053616e732c4e6f746f20436f6c6f7220456d6f6a692c4170706c6520436f6c6f7220456d6f6a692c73616e732d73657269662220666f6e742d7765696768743d22626f6c64223e",
  "linkReferences": {},
  "deployedLinkReferences": {}
}