{
  "_format": "hh-sol-artifact-1",
  "contractName": "Domains",
  "sourceName": "contracts/Domains.sol",
  "abi": [
    {
      "inputs": [
        {
          "internalType": "string",
          "name": "_tld",
          "type": "string"
        }
      ],
      "stateMutability": "payable",
      "type": "constructor"
    },
    {
      "inputs": [],
      "name": "AlreadyRegistered",
      "type": "error"
    },
    {
      "inputs": [
        {
          "internalType": "string",
          "name": "name",
          "type": "string"
        }
      ],
      "name": "InvalidDomainName",
      "type": "error"
    },
    {
      "inputs": [],
      "name": "Unauthorized",
      "type": "error"
    },
    {
      "anonymous": false,
      "inputs": [
        {
          "indexed": true,
          "internalType": "address",
          "name": "owner",
          "type": "address"
        },
        {
          "indexed": true,
          "internalType": "address",
          "name": "approved",
          "type": "address"
        },
        {
          "indexed": true,
          "internalType": "uint256",
          "name": "tokenId",
          "type": "uint256"
        }
      ],
      "name": "Approval",
      "type": "event"
    },
    {
      "anonymous": false,
      "inputs": [
        {
          "indexed": true,
          "internalType": "address",
          "name": "owner",
          "type": "address"
        },
        {
          "indexed": true,
          "internalType": "address",
          "name": "operator",
          "type": "address"
        },
        {
          "indexed": false,
          "internalType": "bool",
          "name": "approved",
          "type": "bool"
        }
      ],
      "name": "ApprovalForAll",
      "type": "event"
    },
    {
      "anonymous": false,
      "inputs": [
        {
          "indexed": true,
          "internalType": "address",
          "name": "from",
          "type": "address"
        },
        {
          "indexed": true,
          "internalType": "address",
          "name": "to",
          "type": "address"
        },
        {
          "indexed": true,
          "internalType": "uint256",
          "name": "tokenId",
          "type": "uint256"
        }
      ],
      "name": "Transfer",
      "type": "event"
    },
    {
      "inputs": [
        {
          "internalType": "address",
          "name": "to",
          "type": "address"
        },
        {
          "internalType": "uint256",
          "name": "tokenId",
          "type": "uint256"
        }
      ],
      "name": "approve",
      "outputs": [],
      "stateMutability": "nonpayable",
      "type": "function"
    },
    {
      "inputs": [
        {
          "internalType": "address",
          "name": "owner",
          "type": "address"
        }
      ],
      "name": "balanceOf",
      "outputs": [
        {
          "internalType": "uint256",
          "name": "",
          "type": "uint256"
        }
      ],
      "stateMutability": "view",
      "type": "function"
    },
    {
      "inputs": [
        {
          "internalType": "string",
          "name": "",
          "type": "string"
        }
      ],
      "name": "domains",
      "outputs": [
        {
          "internalType": "address",
          "name": "",
          "type": "address"
        }
      ],
      "stateMutability": "view",
      "type": "function"
    },
    {
      "inputs": [
        {
          "internalType": "string",
          "name": "name",
          "type": "string"
        }
      ],
      "name": "getAddress",
      "outputs": [
        {
          "internalType": "address",
          "name": "",
          "type": "address"
        }
      ],
      "stateMutability": "view",
      "type": "function"
    },
    {
      "inputs": [],
      "name": "getAllNames",
      "outputs": [
        {
          "internalType": "string[]",
          "name": "",
          "type": "string[]"
        }
      ],
      "stateMutability": "view",
      "type": "function"
    },
    {
      "inputs": [
        {
          "internalType": "uint256",
          "name": "tokenId",
          "type": "uint256"
        }
      ],
      "name": "getApproved",
      "outputs": [
        {
          "internalType": "address",
          "name": "",
          "type": "address"
        }
      ],
      "stateMutability": "view",
      "type": "function"
    },
    {
      "inputs": [
        {
          "internalType": "string",
          "name": "name",
          "type": "string"
        }
      ],
      "name": "getRecord",
      "outputs": [
        {
          "internalType": "string",
          "name": "",
          "type": "string"
        }
      ],
      "stateMutability": "view",
      "type": "function"
    },
    {
      "inputs": [
        {
          "internalType": "address",
          "name": "owner",
          "type": "address"
        },
        {
          "internalType": "address",
          "name": "operator",
          "type": "address"
        }
      ],
      "name": "isApprovedForAll",
      "outputs": [
        {
          "internalType": "bool",
          "name": "",
          "type": "bool"
        }
      ],
      "stateMutability": "view",
      "type": "function"
    },
    {
      "inputs": [],
      "name": "isOwner",
      "outputs": [
        {
          "internalType": "bool",
          "name": "",
          "type": "bool"
        }
      ],
      "stateMutability": "view",
      "type": "function"
    },
    {
      "inputs": [
        {
          "internalType": "string",
          "name": "",
          "type": "string"
        }
      ],
      "name": "isWebsiteRegistered",
      "outputs": [
        {
          "internalType": "bool",
          "name": "",
          "type": "bool"
        }
      ],
      "stateMutability": "view",
      "type": "function"
    },
    {
      "inputs": [],
      "name": "name",
      "outputs": [
        {
          "internalType": "string",
          "name": "",
          "type": "string"
        }
      ],
      "stateMutability": "view",
      "type": "function"
    },
    {
      "inputs": [
        {
          "internalType": "uint256",
          "name": "",
          "type": "uint256"
        }
      ],
      "name": "names",
      "outputs": [
        {
          "internalType": "string",
          "name": "",
          "type": "string"
        }
      ],
      "stateMutability": "view",
      "type": "function"
    },
    {
      "inputs": [],
      "name": "owner",
      "outputs": [
        {
          "internalType": "address payable",
          "name": "",
          "type": "address"
        }
      ],
      "stateMutability": "view",
      "type": "function"
    },
    {
      "inputs": [
        {
          "internalType": "uint256",
          "name": "tokenId",
          "type": "uint256"
        }
      ],
      "name": "ownerOf",
      "outputs": [
        {
          "internalType": "address",
          "name": "",
          "type": "address"
        }
      ],
      "stateMutability": "view",
      "type": "function"
    },
    {
      "inputs": [
        {
          "internalType": "string",
          "name": "name",
          "type": "string"
        }
      ],
      "name": "price",
      "outputs": [
        {
          "internalType": "uint256",
          "name": "",
          "type": "uint256"
        }
      ],
      "stateMutability": "pure",
      "type": "function"
    },
    {
      "inputs": [
        {
          "internalType": "string",
          "name": "",
          "type": "string"
        }
      ],
      "name": "records",
      "outputs": [
        {
          "internalType": "string",
          "name": "",
          "type": "string"
        }
      ],
      "stateMutability": "view",
      "type": "function"
    },
    {
      "inputs": [
        {
          "internalType": "string",
          "name": "name",
          "type": "string"
        }
      ],
      "name": "register",
      "outputs": [],
      "stateMutability": "payable",
      "type": "function"
    },
    {
      "inputs": [
        {
          "internalType": "address",
          "name": "from",
          "type": "address"
        },
        {
          "internalType": "address",
          "name": "to",
          "type": "address"
        },
        {
          "internalType": "uint256",
          "name": "tokenId",
          "type": "uint256"
        }
      ],
      "name": "safeTransferFrom",
      "outputs": [],
      "stateMutability": "nonpayable",
      "type": "function"
    },
    {
      "inputs": [
        {
          "internalType": "address",
          "name": "from",
          "type": "address"
        },
        {
          "internalType": "address",
          "name": "to",
          "type": "address"
        },
        {
          "internalType": "uint256",
          "name": "tokenId",
          "type": "uint256"
        },
        {
          "internalType": "bytes",
          "name": "_data",
          "type": "bytes"
        }
      ],
      "name": "safeTransferFrom",
      "outputs": [],
      "stateMutability": "nonpayable",
      "type": "function"
    },
    {
      "inputs": [
        {
          "internalType": "address",
          "name": "operator",
          "type": "address"
        },
        {
          "internalType": "bool",
          "name": "approved",
          "type": "bool"
        }
      ],
      "name": "setApprovalForAll",
      "outputs": [],
      "stateMutability": "nonpayable",
      "type": "function"
    },
    {
      "inputs": [
        {
          "internalType": "string",
          "name": "name",
          "type": "string"
        },
        {
          "internalType": "string",
          "name": "website",
          "type": "string"
        }
      ],
      "name": "setRecord",
      "outputs": [],
      "stateMutability": "nonpayable",
      "type": "function"
    },
    {
      "inputs": [
        {
          "internalType": "bytes4",
          "name": "interfaceId",
          "type": "bytes4"
        }
      ],
      "name": "supportsInterface",
      "outputs": [
        {
          "internalType": "bool",
          "name": "",
          "type": "bool"
        }
      ],
      "stateMutability": "view",
      "type": "function"
    },
    {
      "inputs": [],
      "name": "symbol",
      "outputs": [
        {
          "internalType": "string",
          "name": "",
          "type": "string"
        }
      ],
      "stateMutability": "view",
      "type": "function"
    },
    {
      "inputs": [],
      "name": "tld",
      "outputs": [
        {
          "internalType": "string",
          "name": "",
          "type": "string"
        }
      ],
      "stateMutability": "view",
      "type": "function"
    },
    {
      "inputs": [
        {
          "internalType": "uint256",
          "name": "tokenId",
          "type": "uint256"
        }
      ],
      "name": "tokenURI",
      "outputs": [
        {
          "internalType": "string",
          "name": "",
          "type": "string"
        }
      ],
      "stateMutability": "view",
      "type": "function"
    },
    {
      "inputs": [
        {
          "internalType": "address",
          "name": "from",
          "type": "address"
        },
        {
          "internalType": "address",
          "name": "to",
          "type": "address"
        },
        {
          "internalType": "uint256",
          "name": "tokenId",
          "type": "uint256"
        }
      ],
      "name": "transferFrom",
      "outputs": [],
      "stateMutability": "nonpayable",
      "type": "function"
    },
    {
      "inputs": [
        {
          "internalType": "string",
          "name": "name",
          "type": "string"
        }
      ],
      "name": "validDomainName",
      "outputs": [
        {
          "internalType": "bool",
          "name": "",
          "type": "bool"
        }
      ],
      "stateMutability": "pure",
      "type": "function"
    },
    {
      "inputs": [],
      "name": "withdraw",
      "outputs": [],
      "stateMutability": "nonpayable",
      "type": "function"
    }
  ],
  "bytecode": "0x6080604052604051806108a0016040528061086b81526020016200569361086b9139600a908051906020019062000038929190620002c8565b506040518060400160405280600d81526020017f3c2f746578743e3c2f7376673e00000000000000000000000000000000000000815250600b908051906020019062000086929190620002c8565b5060405162005efe38038062005efe8339818101604052810190620000ac9190620003ea565b6040518060400160405280601481526020017f5370617274616e204e616d6520536572766963650000000000000000000000008152506040518060400160405280600381526020017f534e530000000000000000000000000000000000000000000000000000000000815250816000908051906020019062000130929190620002c8565b50806001908051906020019062000149929190620002c8565b50505033600860006101000a81548173ffffffffffffffffffffffffffffffffffffffff021916908373ffffffffffffffffffffffffffffffffffffffff1602179055508060099080519060200190620001a5929190620002c8565b50620001f26040518060400160405280601881526020017f2573206e616d652073657276696365206465706c6f796564000000000000000081525082620001f960201b62001e131760201c565b5062000637565b6200029b82826040516024016200021292919062000470565b6040516020818303038152906040527f4b5c4277000000000000000000000000000000000000000000000000000000007bffffffffffffffffffffffffffffffffffffffffffffffffffffffff19166020820180517bffffffffffffffffffffffffffffffffffffffffffffffffffffffff83818316178352505050506200029f60201b60201c565b5050565b60008151905060006a636f6e736f6c652e6c6f679050602083016000808483855afa5050505050565b828054620002d6906200055c565b90600052602060002090601f016020900481019282620002fa576000855562000346565b82601f106200031557805160ff191683800117855562000346565b8280016001018555821562000346579182015b828111156200034557825182559160200191906001019062000328565b5b50905062000355919062000359565b5090565b5b80821115620003745760008160009055506001016200035a565b5090565b60006200038f6200038984620004d4565b620004ab565b905082815260208101848484011115620003a857600080fd5b620003b584828562000526565b509392505050565b600082601f830112620003cf57600080fd5b8151620003e184826020860162000378565b91505092915050565b600060208284031215620003fd57600080fd5b600082015167ffffffffffffffff8111156200041857600080fd5b6200042684828501620003bd565b91505092915050565b60006200043c826200050a565b62000448818562000515565b93506200045a81856020860162000526565b620004658162000626565b840191505092915050565b600060408201905081810360008301526200048c81856200042f565b90508181036020830152620004a281846200042f565b90509392505050565b6000620004b7620004ca565b9050620004c5828262000592565b919050565b6000604051905090565b600067ffffffffffffffff821115620004f257620004f1620005f7565b5b620004fd8262000626565b9050602081019050919050565b600081519050919050565b600082825260208201905092915050565b60005b838110156200054657808201518184015260208101905062000529565b8381111562000556576000848401525b50505050565b600060028204905060018216806200057557607f821691505b602082108114156200058c576200058b620005c8565b5b50919050565b6200059d8262000626565b810181811067ffffffffffffffff82111715620005bf57620005be620005f7565b5b80604052505050565b7f4e487b7100000000000000000000000000000000000000000000000000000000600052602260045260246000fd5b7f4e487b7100000000000000000000000000000000000000000000000000000000600052604160045260246000fd5b6000601f19601f8301169050919050565b61504c80620006476000396000f3fe6080604052600436106101b75760003560e01c806370a08231116100ec578063c1880a981161008a578063e985e9c511610064578063e985e9c51461067c578063f2c298be146106b9578063fb825e5f146106d5578063fe2c619814610700576101b7565b8063c1880a98146105d9578063c30e9ffc14610602578063c87b56dd1461063f576101b7565b806395d89b41116100c657806395d89b411461051f578063a22cb4651461054a578063b88d4fde14610573578063bf40fac11461059c576101b7565b806370a082311461048c5780638da5cb5b146104c95780638f32d59b146104f4576101b7565b80632d551432116101595780634622ab03116101335780634622ab0314610398578063541e771d146103d557806362eef9e7146104125780636352211e1461044f576101b7565b80632d5514321461032d5780633ccfd60b1461035857806342842e0e1461036f576101b7565b8063095ea7b311610195578063095ea7b31461026157806311dd88451461028a57806323b872dd146102c757806326449235146102f0576101b7565b806301ffc9a7146101bc57806306fdde03146101f9578063081812fc14610224575b600080fd5b3480156101c857600080fd5b506101e360048036038101906101de91906136f9565b61073d565b6040516101f09190614023565b60405180910390f35b34801561020557600080fd5b5061020e61081f565b60405161021b9190614062565b60405180910390f35b34801561023057600080fd5b5061024b60048036038101906102469190613846565b6108b1565b6040516102589190613f7f565b60405180910390f35b34801561026d57600080fd5b50610288600480360381019061028391906136bd565b610936565b005b34801561029657600080fd5b506102b160048036038101906102ac919061374b565b610a4e565b6040516102be9190614062565b60405180910390f35b3480156102d357600080fd5b506102ee60048036038101906102e991906135b7565b610b01565b005b3480156102fc57600080fd5b5061031760048036038101906103129190613805565b610b61565b6040516103249190613f7f565b60405180910390f35b34801561033957600080fd5b50610342610baa565b60405161034f9190614062565b60405180910390f35b34801561036457600080fd5b5061036d610c38565b005b34801561037b57600080fd5b50610396600480360381019061039191906135b7565b610cfe565b005b3480156103a457600080fd5b506103bf60048036038101906103ba9190613846565b610d1e565b6040516103cc9190614062565b60405180910390f35b3480156103e157600080fd5b506103fc60048036038101906103f79190613805565b610dbe565b6040516104099190614062565b60405180910390f35b34801561041e57600080fd5b5061043960048036038101906104349190613805565b610e74565b6040516104469190614023565b60405180910390f35b34801561045b57600080fd5b5061047660048036038101906104719190613846565b610eaa565b6040516104839190613f7f565b60405180910390f35b34801561049857600080fd5b506104b360048036038101906104ae9190613552565b610f5c565b6040516104c091906143ca565b60405180910390f35b3480156104d557600080fd5b506104de611014565b6040516104eb9190613f9a565b60405180910390f35b34801561050057600080fd5b5061050961103a565b6040516105169190614023565b60405180910390f35b34801561052b57600080fd5b50610534611092565b6040516105419190614062565b60405180910390f35b34801561055657600080fd5b50610571600480360381019061056c9190613681565b611124565b005b34801561057f57600080fd5b5061059a60048036038101906105959190613606565b61113a565b005b3480156105a857600080fd5b506105c360048036038101906105be919061374b565b61119c565b6040516105d09190613f7f565b60405180910390f35b3480156105e557600080fd5b5061060060048036038101906105fb9190613790565b6111e7565b005b34801561060e57600080fd5b506106296004803603810190610624919061374b565b6113e3565b6040516106369190614023565b60405180910390f35b34801561064b57600080fd5b5061066660048036038101906106619190613846565b611497565b6040516106739190614062565b60405180910390f35b34801561068857600080fd5b506106a3600480360381019061069e919061357b565b6115e9565b6040516106b09190614023565b60405180910390f35b6106d360048036038101906106ce919061374b565b61167d565b005b3480156106e157600080fd5b506106ea611b3a565b6040516106f79190614001565b60405180910390f35b34801561070c57600080fd5b506107276004803603810190610722919061374b565b611d6d565b60405161073491906143ca565b60405180910390f35b60007f80ac58cd000000000000000000000000000000000000000000000000000000007bffffffffffffffffffffffffffffffffffffffffffffffffffffffff1916827bffffffffffffffffffffffffffffffffffffffffffffffffffffffff1916148061080857507f5b5e139f000000000000000000000000000000000000000000000000000000007bffffffffffffffffffffffffffffffffffffffffffffffffffffffff1916827bffffffffffffffffffffffffffffffffffffffffffffffffffffffff1916145b80610818575061081782611eaf565b5b9050919050565b60606000805461082e906146f6565b80601f016020809104026020016040519081016040528092919081815260200182805461085a906146f6565b80156108a75780601f1061087c576101008083540402835291602001916108a7565b820191906000526020600020905b81548152906001019060200180831161088a57829003601f168201915b5050505050905090565b60006108bc82611f19565b6108fb576040517f08c379a00000000000000000000000000000000000000000000000000000000081526004016108f29061432a565b60405180910390fd5b6004600083815260200190815260200160002060009054906101000a900473ffffffffffffffffffffffffffffffffffffffff169050919050565b600061094182610eaa565b90508073ffffffffffffffffffffffffffffffffffffffff168373ffffffffffffffffffffffffffffffffffffffff1614156109b2576040517f08c379a00000000000000000000000000000000000000000000000000000000081526004016109a99061438a565b60405180910390fd5b8073ffffffffffffffffffffffffffffffffffffffff166109d1611f85565b73ffffffffffffffffffffffffffffffffffffffff161480610a0057506109ff816109fa611f85565b6115e9565b5b610a3f576040517f08c379a0000000000000000000000000000000000000000000000000000000008152600401610a369061426a565b60405180910390fd5b610a498383611f8d565b505050565b6060600d8383604051610a62929190613e4c565b90815260200160405180910390208054610a7b906146f6565b80601f0160208091040260200160405190810160405280929190818152602001828054610aa7906146f6565b8015610af45780601f10610ac957610100808354040283529160200191610af4565b820191906000526020600020905b815481529060010190602001808311610ad757829003601f168201915b5050505050905092915050565b610b12610b0c611f85565b82612046565b610b51576040517f08c379a0000000000000000000000000000000000000000000000000000000008152600401610b48906143aa565b60405180910390fd5b610b5c838383612124565b505050565b600c818051602081018201805184825260208301602085012081835280955050505050506000915054906101000a900473ffffffffffffffffffffffffffffffffffffffff1681565b60098054610bb7906146f6565b80601f0160208091040260200160405190810160405280929190818152602001828054610be3906146f6565b8015610c305780601f10610c0557610100808354040283529160200191610c30565b820191906000526020600020905b815481529060010190602001808311610c1357829003601f168201915b505050505081565b610c4061103a565b610c4957600080fd5b600047905060003373ffffffffffffffffffffffffffffffffffffffff1682604051610c7490613f6a565b60006040518083038185875af1925050503d8060008114610cb1576040519150601f19603f3d011682016040523d82523d6000602084013e610cb6565b606091505b5050905080610cfa576040517f08c379a0000000000000000000000000000000000000000000000000000000008152600401610cf19061422a565b60405180910390fd5b5050565b610d198383836040518060200160405280600081525061113a565b505050565b600f6020528060005260406000206000915090508054610d3d906146f6565b80601f0160208091040260200160405190810160405280929190818152602001828054610d69906146f6565b8015610db65780601f10610d8b57610100808354040283529160200191610db6565b820191906000526020600020905b815481529060010190602001808311610d9957829003601f168201915b505050505081565b600d818051602081018201805184825260208301602085012081835280955050505050506000915090508054610df3906146f6565b80601f0160208091040260200160405190810160405280929190818152602001828054610e1f906146f6565b8015610e6c5780601f10610e4157610100808354040283529160200191610e6c565b820191906000526020600020905b815481529060010190602001808311610e4f57829003601f168201915b505050505081565b600e818051602081018201805184825260208301602085012081835280955050505050506000915054906101000a900460ff1681565b6000806002600084815260200190815260200160002060009054906101000a900473ffffffffffffffffffffffffffffffffffffffff169050600073ffffffffffffffffffffffffffffffffffffffff168173ffffffffffffffffffffffffffffffffffffffff161415610f53576040517f08c379a0000000000000000000000000000000000000000000000000000000008152600401610f4a906142aa565b60405180910390fd5b80915050919050565b60008073ffffffffffffffffffffffffffffffffffffffff168273ffffffffffffffffffffffffffffffffffffffff161415610fcd576040517f08c379a0000000000000000000000000000000000000000000000000000000008152600401610fc49061428a565b60405180910390fd5b600360008373ffffffffffffffffffffffffffffffffffffffff1673ffffffffffffffffffffffffffffffffffffffff168152602001908152602001600020549050919050565b600860009054906101000a900473ffffffffffffffffffffffffffffffffffffffff1681565b6000600860009054906101000a900473ffffffffffffffffffffffffffffffffffffffff1673ffffffffffffffffffffffffffffffffffffffff163373ffffffffffffffffffffffffffffffffffffffff1614905090565b6060600180546110a1906146f6565b80601f01602080910402602001604051908101604052809291908181526020018280546110cd906146f6565b801561111a5780601f106110ef5761010080835404028352916020019161111a565b820191906000526020600020905b8154815290600101906020018083116110fd57829003601f168201915b5050505050905090565b61113661112f611f85565b838361238b565b5050565b61114b611145611f85565b83612046565b61118a576040517f08c379a0000000000000000000000000000000000000000000000000000000008152600401611181906143aa565b60405180910390fd5b611196848484846124f8565b50505050565b6000600c83836040516111b0929190613e4c565b908152602001604051809103902060009054906101000a900473ffffffffffffffffffffffffffffffffffffffff16905092915050565b3373ffffffffffffffffffffffffffffffffffffffff16600c8585604051611210929190613e4c565b908152602001604051809103902060009054906101000a900473ffffffffffffffffffffffffffffffffffffffff1673ffffffffffffffffffffffffffffffffffffffff161461128c576040517f82b4290000000000000000000000000000000000000000000000000000000000815260040160405180910390fd5b600e828260405161129e929190613e4c565b908152602001604051809103902060009054906101000a900460ff16156112f1576040517f3a81d6fc00000000000000000000000000000000000000000000000000000000815260040160405180910390fd5b8181600d8686604051611305929190613e4c565b908152602001604051809103902091906113209291906132a6565b506001600e8383604051611335929190613e4c565b908152602001604051809103902060006101000a81548160ff0219169083151502179055506113dd6040518060400160405280601981526020017f57656273697465206973206d617070656420686572653a25730000000000000081525083838080601f016020809104026020016040519081016040528093929190818152602001838380828437600081840152601f19601f82011690508083019250505050505050611e13565b50505050565b6000600361143484848080601f016020809104026020016040519081016040528093929190818152602001838380828437600081840152601f19601f82011690508083019250505050505050612554565b1015801561148f5750600a61148c84848080601f016020809104026020016040519081016040528093929190818152602001838380828437600081840152601f19601f82011690508083019250505050505050612554565b11155b905092915050565b60606114a282611f19565b6114e1576040517f08c379a00000000000000000000000000000000000000000000000000000000081526004016114d89061430a565b60405180910390fd5b6000600660008481526020019081526020016000208054611501906146f6565b80601f016020809104026020016040519081016040528092919081815260200182805461152d906146f6565b801561157a5780601f1061154f5761010080835404028352916020019161157a565b820191906000526020600020905b81548152906001019060200180831161155d57829003601f168201915b50505050509050600061158b61272f565b90506000815114156115a15781925050506115e4565b6000825111156115d65780826040516020016115be929190613e96565b604051602081830303815290604052925050506115e4565b6115df84612746565b925050505b919050565b6000600560008473ffffffffffffffffffffffffffffffffffffffff1673ffffffffffffffffffffffffffffffffffffffff16815260200190815260200160002060008373ffffffffffffffffffffffffffffffffffffffff1673ffffffffffffffffffffffffffffffffffffffff16815260200190815260200160002060009054906101000a900460ff16905092915050565b600073ffffffffffffffffffffffffffffffffffffffff16600c83836040516116a7929190613e4c565b908152602001604051809103902060009054906101000a900473ffffffffffffffffffffffffffffffffffffffff1673ffffffffffffffffffffffffffffffffffffffff1614611723576040517f3a81d6fc00000000000000000000000000000000000000000000000000000000815260040160405180910390fd5b61172d82826113e3565b6117705781816040517fec42eb4000000000000000000000000000000000000000000000000000000000815260040161176792919061403e565b60405180910390fd5b600061177c8383611d6d565b9050803410156117c1576040517f08c379a00000000000000000000000000000000000000000000000000000000081526004016117b89061436a565b60405180910390fd5b6000838360096040516020016117d993929190613e65565b60405160208183030381529060405290506000600a82600b60405160200161180393929190613eba565b6040516020818303038152906040529050600061182060076127ed565b9050600061187187878080601f016020809104026020016040519081016040528093929190818152602001838380828437600081840152601f19601f82011690508083019250505050505050612554565b9050600061187e826127fb565b90506119726040518060600160405280602d8152602001614fc4602d913989898080601f016020809104026020016040519081016040528093929190818152602001838380828437600081840152601f19601f82011690508083019250505050505050600980546118ee906146f6565b80601f016020809104026020016040519081016040528092919081815260200182805461191a906146f6565b80156119675780601f1061193c57610100808354040283529160200191611967565b820191906000526020600020905b81548152906001019060200180831161194a57829003601f168201915b5050505050866129a8565b60006119a88661198187612a4a565b8460405160200161199493929190613eeb565b604051602081830303815290604052612a4a565b90506000816040516020016119bd9190613f48565b60405160208183030381529060405290506119ef604051806060016040528060398152602001614f1260399139612c08565b611a2e6040518060400160405280600e81526020017f46696e616c20746f6b656e55524900000000000000000000000000000000000081525082611e13565b611a4f604051806060016040528060398152602001614f4b60399139612c08565b611a593386612ca1565b611a638582612cbf565b33600c8b8b604051611a76929190613e4c565b908152602001604051809103902060006101000a81548173ffffffffffffffffffffffffffffffffffffffff021916908373ffffffffffffffffffffffffffffffffffffffff160217905550611b016040518060400160405280601b81526020017f2573206861732072656769737465726564206120646f6d61696e21000000000081525033612d33565b611b0b6007612dcf565b8989600f60008881526020019081526020016000209190611b2d9291906132a6565b5050505050505050505050565b6060611b5d604051806060016040528060268152602001614ff160269139612c08565b6000611b6960076127ed565b67ffffffffffffffff811115611ba8577f4e487b7100000000000000000000000000000000000000000000000000000000600052604160045260246000fd5b604051908082528060200260200182016040528015611bdb57816020015b6060815260200190600190039081611bc65790505b50905060005b611beb60076127ed565b811015611d6557600f60008281526020019081526020016000208054611c10906146f6565b80601f0160208091040260200160405190810160405280929190818152602001828054611c3c906146f6565b8015611c895780601f10611c5e57610100808354040283529160200191611c89565b820191906000526020600020905b815481529060010190602001808311611c6c57829003601f168201915b5050505050828281518110611cc7577f4e487b7100000000000000000000000000000000000000000000000000000000600052603260045260246000fd5b6020026020010181905250611d526040518060400160405280601e81526020017f446f6d61696e206e616d6520666f7220746f6b656e202564206973202573000081525082848481518110611d45577f4e487b7100000000000000000000000000000000000000000000000000000000600052603260045260246000fd5b6020026020010151612de5565b8080611d5d90614759565b915050611be1565b508091505090565b600080611dbd84848080601f016020809104026020016040519081016040528093929190818152602001838380828437600081840152601f19601f82011690508083019250505050505050612554565b905060008111611dcc57600080fd5b6003811415611de6576702c68af0bb140000915050611e0d565b6004811415611e0057670429d069189e0000915050611e0d565b67016345785d8a00009150505b92915050565b611eab8282604051602401611e299291906140b4565b6040516020818303038152906040527f4b5c4277000000000000000000000000000000000000000000000000000000007bffffffffffffffffffffffffffffffffffffffffffffffffffffffff19166020820180517bffffffffffffffffffffffffffffffffffffffffffffffffffffffff8381831617835250505050612e84565b5050565b60007f01ffc9a7000000000000000000000000000000000000000000000000000000007bffffffffffffffffffffffffffffffffffffffffffffffffffffffff1916827bffffffffffffffffffffffffffffffffffffffffffffffffffffffff1916149050919050565b60008073ffffffffffffffffffffffffffffffffffffffff166002600084815260200190815260200160002060009054906101000a900473ffffffffffffffffffffffffffffffffffffffff1673ffffffffffffffffffffffffffffffffffffffff1614159050919050565b600033905090565b816004600083815260200190815260200160002060006101000a81548173ffffffffffffffffffffffffffffffffffffffff021916908373ffffffffffffffffffffffffffffffffffffffff160217905550808273ffffffffffffffffffffffffffffffffffffffff1661200083610eaa565b73ffffffffffffffffffffffffffffffffffffffff167f8c5be1e5ebec7d5bd14f71427d1e84f3dd0314c0f7b2291e5b200ac8c7c3b92560405160405180910390a45050565b600061205182611f19565b612090576040517f08c379a00000000000000000000000000000000000000000000000000000000081526004016120879061424a565b60405180910390fd5b600061209b83610eaa565b90508073ffffffffffffffffffffffffffffffffffffffff168473ffffffffffffffffffffffffffffffffffffffff1614806120dd57506120dc81856115e9565b5b8061211b57508373ffffffffffffffffffffffffffffffffffffffff16612103846108b1565b73ffffffffffffffffffffffffffffffffffffffff16145b91505092915050565b8273ffffffffffffffffffffffffffffffffffffffff1661214482610eaa565b73ffffffffffffffffffffffffffffffffffffffff161461219a576040517f08c379a0000000000000000000000000000000000000000000000000000000008152600401612191906141aa565b60405180910390fd5b600073ffffffffffffffffffffffffffffffffffffffff168273ffffffffffffffffffffffffffffffffffffffff16141561220a576040517f08c379a0000000000000000000000000000000000000000000000000000000008152600401612201906141ea565b60405180910390fd5b612215838383612ead565b612220600082611f8d565b6001600360008573ffffffffffffffffffffffffffffffffffffffff1673ffffffffffffffffffffffffffffffffffffffff168152602001908152602001600020600082825461227091906145fa565b925050819055506001600360008473ffffffffffffffffffffffffffffffffffffffff1673ffffffffffffffffffffffffffffffffffffffff16815260200190815260200160002060008282546122c79190614519565b92505081905550816002600083815260200190815260200160002060006101000a81548173ffffffffffffffffffffffffffffffffffffffff021916908373ffffffffffffffffffffffffffffffffffffffff160217905550808273ffffffffffffffffffffffffffffffffffffffff168473ffffffffffffffffffffffffffffffffffffffff167fddf252ad1be2c89b69c2b068fc378daa952ba7f163c4a11628f55a4df523b3ef60405160405180910390a4612386838383612eb2565b505050565b8173ffffffffffffffffffffffffffffffffffffffff168373ffffffffffffffffffffffffffffffffffffffff1614156123fa576040517f08c379a00000000000000000000000000000000000000000000000000000000081526004016123f19061420a565b60405180910390fd5b80600560008573ffffffffffffffffffffffffffffffffffffffff1673ffffffffffffffffffffffffffffffffffffffff16815260200190815260200160002060008473ffffffffffffffffffffffffffffffffffffffff1673ffffffffffffffffffffffffffffffffffffffff16815260200190815260200160002060006101000a81548160ff0219169083151502179055508173ffffffffffffffffffffffffffffffffffffffff168373ffffffffffffffffffffffffffffffffffffffff167f17307eab39ab6107e8899845ad3d59bd9653f200f220920489ca2b5937696c31836040516124eb9190614023565b60405180910390a3505050565b612503848484612124565b61250f84848484612eb7565b61254e576040517f08c379a00000000000000000000000000000000000000000000000000000000081526004016125459061418a565b60405180910390fd5b50505050565b60008060008084519050600092505b808210156127245760008583815181106125a6577f4e487b7100000000000000000000000000000000000000000000000000000000600052603260045260246000fd5b602001015160f81c60f81b9050608060f81b817effffffffffffffffffffffffffffffffffffffffffffffffffffffffffffff191610156125f5576001836125ee9190614519565b9250612710565b60e060f81b817effffffffffffffffffffffffffffffffffffffffffffffffffffffffffffff19161015612637576002836126309190614519565b925061270f565b60f060f81b817effffffffffffffffffffffffffffffffffffffffffffffffffffffffffffff19161015612679576003836126729190614519565b925061270e565b60f8801b817effffffffffffffffffffffffffffffffffffffffffffffffffffffffffffff191610156126ba576004836126b39190614519565b925061270d565b60fc60f81b817effffffffffffffffffffffffffffffffffffffffffffffffffffffffffffff191610156126fc576005836126f59190614519565b925061270c565b6006836127099190614519565b92505b5b5b5b5b50828061271c90614759565b935050612563565b829350505050919050565b606060405180602001604052806000815250905090565b606061275182611f19565b612790576040517f08c379a00000000000000000000000000000000000000000000000000000000081526004016127879061434a565b60405180910390fd5b600061279a61272f565b905060008151116127ba57604051806020016040528060008152506127e5565b806127c4846127fb565b6040516020016127d5929190613e96565b6040516020818303038152906040525b915050919050565b600081600001549050919050565b60606000821415612843576040518060400160405280600181526020017f300000000000000000000000000000000000000000000000000000000000000081525090506129a3565b600082905060005b6000821461287557808061285e90614759565b915050600a8261286e919061456f565b915061284b565b60008167ffffffffffffffff8111156128b7577f4e487b7100000000000000000000000000000000000000000000000000000000600052604160045260246000fd5b6040519080825280601f01601f1916602001820160405280156128e95781602001600182028036833780820191505090505b5090505b6000851461299c5760018261290291906145fa565b9150600a8561291191906147a2565b603061291d9190614519565b60f81b818381518110612959577f4e487b7100000000000000000000000000000000000000000000000000000000600052603260045260246000fd5b60200101907effffffffffffffffffffffffffffffffffffffffffffffffffffffffffffff1916908160001a905350600a85612995919061456f565b94506128ed565b8093505050505b919050565b612a44848484846040516024016129c294939291906140eb565b6040516020818303038152906040527f9fd009f5000000000000000000000000000000000000000000000000000000007bffffffffffffffffffffffffffffffffffffffffffffffffffffffff19166020820180517bffffffffffffffffffffffffffffffffffffffffffffffffffffffff8381831617835250505050612e84565b50505050565b60606000825190506000811415612a735760405180602001604052806000815250915050612c03565b60006003600283612a849190614519565b612a8e919061456f565b6004612a9a91906145a0565b90506000602082612aab9190614519565b67ffffffffffffffff811115612aea577f4e487b7100000000000000000000000000000000000000000000000000000000600052604160045260246000fd5b6040519080825280601f01601f191660200182016040528015612b1c5781602001600182028036833780820191505090505b5090506000604051806060016040528060408152602001614f84604091399050600181016020830160005b86811015612bc05760038101905062ffffff818a015116603f8160121c168401518060081b905060ff603f83600c1c1686015116810190508060081b905060ff603f8360061c1686015116810190508060081b905060ff603f831686015116810190508060e01b90508084526004840193505050612b47565b506003860660018114612bda5760028114612bea57612bf5565b613d3d60f01b6002830352612bf5565b603d60f81b60018303525b508484525050819450505050505b919050565b612c9e81604051602401612c1c9190614062565b6040516020818303038152906040527f41304fac000000000000000000000000000000000000000000000000000000007bffffffffffffffffffffffffffffffffffffffffffffffffffffffff19166020820180517bffffffffffffffffffffffffffffffffffffffffffffffffffffffff8381831617835250505050612e84565b50565b612cbb82826040518060200160405280600081525061304e565b5050565b612cc882611f19565b612d07576040517f08c379a0000000000000000000000000000000000000000000000000000000008152600401612cfe906142ca565b60405180910390fd5b80600660008481526020019081526020016000209080519060200190612d2e92919061332c565b505050565b612dcb8282604051602401612d49929190614084565b6040516020818303038152906040527f319af333000000000000000000000000000000000000000000000000000000007bffffffffffffffffffffffffffffffffffffffffffffffffffffffff19166020820180517bffffffffffffffffffffffffffffffffffffffffffffffffffffffff8381831617835250505050612e84565b5050565b6001816000016000828254019250508190555050565b612e7f838383604051602401612dfd93929190614145565b6040516020818303038152906040527fa3f5c739000000000000000000000000000000000000000000000000000000007bffffffffffffffffffffffffffffffffffffffffffffffffffffffff19166020820180517bffffffffffffffffffffffffffffffffffffffffffffffffffffffff8381831617835250505050612e84565b505050565b60008151905060006a636f6e736f6c652e6c6f679050602083016000808483855afa5050505050565b505050565b505050565b6000612ed88473ffffffffffffffffffffffffffffffffffffffff166130a9565b15613041578373ffffffffffffffffffffffffffffffffffffffff1663150b7a02612f01611f85565b8786866040518563ffffffff1660e01b8152600401612f239493929190613fb5565b602060405180830381600087803b158015612f3d57600080fd5b505af1925050508015612f6e57506040513d601f19601f82011682018060405250810190612f6b9190613722565b60015b612ff1573d8060008114612f9e576040519150601f19603f3d011682016040523d82523d6000602084013e612fa3565b606091505b50600081511415612fe9576040517f08c379a0000000000000000000000000000000000000000000000000000000008152600401612fe09061418a565b60405180910390fd5b805181602001fd5b63150b7a0260e01b7bffffffffffffffffffffffffffffffffffffffffffffffffffffffff1916817bffffffffffffffffffffffffffffffffffffffffffffffffffffffff191614915050613046565b600190505b949350505050565b61305883836130cc565b6130656000848484612eb7565b6130a4576040517f08c379a000000000000000000000000000000000000000000000000000000000815260040161309b9061418a565b60405180910390fd5b505050565b6000808273ffffffffffffffffffffffffffffffffffffffff163b119050919050565b600073ffffffffffffffffffffffffffffffffffffffff168273ffffffffffffffffffffffffffffffffffffffff16141561313c576040517f08c379a0000000000000000000000000000000000000000000000000000000008152600401613133906142ea565b60405180910390fd5b61314581611f19565b15613185576040517f08c379a000000000000000000000000000000000000000000000000000000000815260040161317c906141ca565b60405180910390fd5b61319160008383612ead565b6001600360008473ffffffffffffffffffffffffffffffffffffffff1673ffffffffffffffffffffffffffffffffffffffff16815260200190815260200160002060008282546131e19190614519565b92505081905550816002600083815260200190815260200160002060006101000a81548173ffffffffffffffffffffffffffffffffffffffff021916908373ffffffffffffffffffffffffffffffffffffffff160217905550808273ffffffffffffffffffffffffffffffffffffffff16600073ffffffffffffffffffffffffffffffffffffffff167fddf252ad1be2c89b69c2b068fc378daa952ba7f163c4a11628f55a4df523b3ef60405160405180910390a46132a260008383612eb2565b5050565b8280546132b2906146f6565b90600052602060002090601f0160209004810192826132d4576000855561331b565b82601f106132ed57803560ff191683800117855561331b565b8280016001018555821561331b579182015b8281111561331a5782358255916020019190600101906132ff565b5b50905061332891906133b2565b5090565b828054613338906146f6565b90600052602060002090601f01602090048101928261335a57600085556133a1565b82601f1061337357805160ff19168380011785556133a1565b828001600101855582156133a1579182015b828111156133a0578251825591602001919060010190613385565b5b5090506133ae91906133b2565b5090565b5b808211156133cb5760008160009055506001016133b3565b5090565b60006133e26133dd8461440a565b6143e5565b9050828152602081018484840111156133fa57600080fd5b6134058482856146b4565b509392505050565b600061342061341b8461443b565b6143e5565b90508281526020810184848401111561343857600080fd5b6134438482856146b4565b509392505050565b60008135905061345a81614eb5565b92915050565b60008135905061346f81614ecc565b92915050565b60008135905061348481614ee3565b92915050565b60008151905061349981614ee3565b92915050565b600082601f8301126134b057600080fd5b81356134c08482602086016133cf565b91505092915050565b60008083601f8401126134db57600080fd5b8235905067ffffffffffffffff8111156134f457600080fd5b60208301915083600182028301111561350c57600080fd5b9250929050565b600082601f83011261352457600080fd5b813561353484826020860161340d565b91505092915050565b60008135905061354c81614efa565b92915050565b60006020828403121561356457600080fd5b60006135728482850161344b565b91505092915050565b6000806040838503121561358e57600080fd5b600061359c8582860161344b565b92505060206135ad8582860161344b565b9150509250929050565b6000806000606084860312156135cc57600080fd5b60006135da8682870161344b565b93505060206135eb8682870161344b565b92505060406135fc8682870161353d565b9150509250925092565b6000806000806080858703121561361c57600080fd5b600061362a8782880161344b565b945050602061363b8782880161344b565b935050604061364c8782880161353d565b925050606085013567ffffffffffffffff81111561366957600080fd5b6136758782880161349f565b91505092959194509250565b6000806040838503121561369457600080fd5b60006136a28582860161344b565b92505060206136b385828601613460565b9150509250929050565b600080604083850312156136d057600080fd5b60006136de8582860161344b565b92505060206136ef8582860161353d565b9150509250929050565b60006020828403121561370b57600080fd5b600061371984828501613475565b91505092915050565b60006020828403121561373457600080fd5b60006137428482850161348a565b91505092915050565b6000806020838503121561375e57600080fd5b600083013567ffffffffffffffff81111561377857600080fd5b613784858286016134c9565b92509250509250929050565b600080600080604085870312156137a657600080fd5b600085013567ffffffffffffffff8111156137c057600080fd5b6137cc878288016134c9565b9450945050602085013567ffffffffffffffff8111156137eb57600080fd5b6137f7878288016134c9565b925092505092959194509250565b60006020828403121561381757600080fd5b600082013567ffffffffffffffff81111561383157600080fd5b61383d84828501613513565b91505092915050565b60006020828403121561385857600080fd5b60006138668482850161353d565b91505092915050565b600061387b83836139b0565b905092915050565b61388c81614640565b82525050565b61389b8161462e565b82525050565b60006138ac82614491565b6138b681856144bf565b9350836020820285016138c88561446c565b8060005b8581101561390457848403895281516138e5858261386f565b94506138f0836144b2565b925060208a019950506001810190506138cc565b50829750879550505050505092915050565b61391f81614652565b82525050565b60006139308261449c565b61393a81856144d0565b935061394a8185602086016146c3565b6139538161488f565b840191505092915050565b600061396a83856144fd565b93506139778385846146b4565b6139808361488f565b840190509392505050565b6000613997838561450e565b93506139a48385846146b4565b82840190509392505050565b60006139bb826144a7565b6139c581856144ec565b93506139d58185602086016146c3565b6139de8161488f565b840191505092915050565b60006139f4826144a7565b6139fe81856144fd565b9350613a0e8185602086016146c3565b613a178161488f565b840191505092915050565b6000613a2d826144a7565b613a37818561450e565b9350613a478185602086016146c3565b80840191505092915050565b60008154613a60816146f6565b613a6a818661450e565b94506001821660008114613a855760018114613a9657613ac9565b60ff19831686528186019350613ac9565b613a9f8561447c565b60005b83811015613ac157815481890152600182019150602081019050613aa2565b838801955050505b50505092915050565b6000613adf6032836144fd565b9150613aea826148a0565b604082019050919050565b6000613b026025836144fd565b9150613b0d826148ef565b604082019050919050565b6000613b25601c836144fd565b9150613b308261493e565b602082019050919050565b6000613b486024836144fd565b9150613b5382614967565b604082019050919050565b6000613b6b6019836144fd565b9150613b76826149b6565b602082019050919050565b6000613b8e6018836144fd565b9150613b99826149df565b602082019050919050565b6000613bb1602c836144fd565b9150613bbc82614a08565b604082019050919050565b6000613bd46038836144fd565b9150613bdf82614a57565b604082019050919050565b6000613bf760018361450e565b9150613c0282614aa6565b600182019050919050565b6000613c1a602a836144fd565b9150613c2582614acf565b604082019050919050565b6000613c3d6029836144fd565b9150613c4882614b1e565b604082019050919050565b6000613c60602e836144fd565b9150613c6b82614b6d565b604082019050919050565b6000613c8360028361450e565b9150613c8e82614bbc565b600282019050919050565b6000613ca66020836144fd565b9150613cb182614be5565b602082019050919050565b6000613cc96031836144fd565b9150613cd482614c0e565b604082019050919050565b6000613cec602c836144fd565b9150613cf782614c5d565b604082019050919050565b6000613d0f605e8361450e565b9150613d1a82614cac565b605e82019050919050565b6000613d32602f836144fd565b9150613d3d82614d21565b604082019050919050565b6000613d556015836144fd565b9150613d6082614d70565b602082019050919050565b6000613d78600a8361450e565b9150613d8382614d99565b600a82019050919050565b6000613d9b6021836144fd565b9150613da682614dc2565b604082019050919050565b6000613dbe601d8361450e565b9150613dc982614e11565b601d82019050919050565b6000613de1600c8361450e565b9150613dec82614e3a565b600c82019050919050565b6000613e046000836144e1565b9150613e0f82614e63565b600082019050919050565b6000613e276031836144fd565b9150613e3282614e66565b604082019050919050565b613e46816146aa565b82525050565b6000613e5982848661398b565b91508190509392505050565b6000613e7282858761398b565b9150613e7d82613bea565b9150613e898284613a53565b9150819050949350505050565b6000613ea28285613a22565b9150613eae8284613a22565b91508190509392505050565b6000613ec68286613a53565b9150613ed28285613a22565b9150613ede8284613a53565b9150819050949350505050565b6000613ef682613d6b565b9150613f028286613a22565b9150613f0d82613d02565b9150613f198285613a22565b9150613f2482613dd4565b9150613f308284613a22565b9150613f3b82613c76565b9150819050949350505050565b6000613f5382613db1565b9150613f5f8284613a22565b915081905092915050565b6000613f7582613df7565b9150819050919050565b6000602082019050613f946000830184613892565b92915050565b6000602082019050613faf6000830184613883565b92915050565b6000608082019050613fca6000830187613892565b613fd76020830186613892565b613fe46040830185613e3d565b8181036060830152613ff68184613925565b905095945050505050565b6000602082019050818103600083015261401b81846138a1565b905092915050565b60006020820190506140386000830184613916565b92915050565b6000602082019050818103600083015261405981848661395e565b90509392505050565b6000602082019050818103600083015261407c81846139e9565b905092915050565b6000604082019050818103600083015261409e81856139e9565b90506140ad6020830184613892565b9392505050565b600060408201905081810360008301526140ce81856139e9565b905081810360208301526140e281846139e9565b90509392505050565b6000608082019050818103600083015261410581876139e9565b9050818103602083015261411981866139e9565b9050818103604083015261412d81856139e9565b905061413c6060830184613e3d565b95945050505050565b6000606082019050818103600083015261415f81866139e9565b905061416e6020830185613e3d565b818103604083015261418081846139e9565b9050949350505050565b600060208201905081810360008301526141a381613ad2565b9050919050565b600060208201905081810360008301526141c381613af5565b9050919050565b600060208201905081810360008301526141e381613b18565b9050919050565b6000602082019050818103600083015261420381613b3b565b9050919050565b6000602082019050818103600083015261422381613b5e565b9050919050565b6000602082019050818103600083015261424381613b81565b9050919050565b6000602082019050818103600083015261426381613ba4565b9050919050565b6000602082019050818103600083015261428381613bc7565b9050919050565b600060208201905081810360008301526142a381613c0d565b9050919050565b600060208201905081810360008301526142c381613c30565b9050919050565b600060208201905081810360008301526142e381613c53565b9050919050565b6000602082019050818103600083015261430381613c99565b9050919050565b6000602082019050818103600083015261432381613cbc565b9050919050565b6000602082019050818103600083015261434381613cdf565b9050919050565b6000602082019050818103600083015261436381613d25565b9050919050565b6000602082019050818103600083015261438381613d48565b9050919050565b600060208201905081810360008301526143a381613d8e565b9050919050565b600060208201905081810360008301526143c381613e1a565b9050919050565b60006020820190506143df6000830184613e3d565b92915050565b60006143ef614400565b90506143fb8282614728565b919050565b6000604051905090565b600067ffffffffffffffff82111561442557614424614860565b5b61442e8261488f565b9050602081019050919050565b600067ffffffffffffffff82111561445657614455614860565b5b61445f8261488f565b9050602081019050919050565b6000819050602082019050919050565b60008190508160005260206000209050919050565b600081519050919050565b600081519050919050565b600081519050919050565b6000602082019050919050565b600082825260208201905092915050565b600082825260208201905092915050565b600081905092915050565b600082825260208201905092915050565b600082825260208201905092915050565b600081905092915050565b6000614524826146aa565b915061452f836146aa565b9250827fffffffffffffffffffffffffffffffffffffffffffffffffffffffffffffffff03821115614564576145636147d3565b5b828201905092915050565b600061457a826146aa565b9150614585836146aa565b92508261459557614594614802565b5b828204905092915050565b60006145ab826146aa565b91506145b6836146aa565b9250817fffffffffffffffffffffffffffffffffffffffffffffffffffffffffffffffff04831182151516156145ef576145ee6147d3565b5b828202905092915050565b6000614605826146aa565b9150614610836146aa565b925082821015614623576146226147d3565b5b828203905092915050565b60006146398261468a565b9050919050565b600061464b8261468a565b9050919050565b60008115159050919050565b60007fffffffff0000000000000000000000000000000000000000000000000000000082169050919050565b600073ffffffffffffffffffffffffffffffffffffffff82169050919050565b6000819050919050565b82818337600083830152505050565b60005b838110156146e15780820151818401526020810190506146c6565b838111156146f0576000848401525b50505050565b6000600282049050600182168061470e57607f821691505b6020821081141561472257614721614831565b5b50919050565b6147318261488f565b810181811067ffffffffffffffff821117156147505761474f614860565b5b80604052505050565b6000614764826146aa565b91507fffffffffffffffffffffffffffffffffffffffffffffffffffffffffffffffff821415614797576147966147d3565b5b600182019050919050565b60006147ad826146aa565b91506147b8836146aa565b9250826147c8576147c7614802565b5b828206905092915050565b7f4e487b7100000000000000000000000000000000000000000000000000000000600052601160045260246000fd5b7f4e487b7100000000000000000000000000000000000000000000000000000000600052601260045260246000fd5b7f4e487b7100000000000000000000000000000000000000000000000000000000600052602260045260246000fd5b7f4e487b7100000000000000000000000000000000000000000000000000000000600052604160045260246000fd5b6000601f19601f8301169050919050565b7f4552433732313a207472616e7366657220746f206e6f6e20455243373231526560008201527f63656976657220696d706c656d656e7465720000000000000000000000000000602082015250565b7f4552433732313a207472616e736665722066726f6d20696e636f72726563742060008201527f6f776e6572000000000000000000000000000000000000000000000000000000602082015250565b7f4552433732313a20746f6b656e20616c7265616479206d696e74656400000000600082015250565b7f4552433732313a207472616e7366657220746f20746865207a65726f2061646460008201527f7265737300000000000000000000000000000000000000000000000000000000602082015250565b7f4552433732313a20617070726f766520746f2063616c6c657200000000000000600082015250565b7f4661696c656420746f207769746864726177204d617469630000000000000000600082015250565b7f4552433732313a206f70657261746f7220717565727920666f72206e6f6e657860008201527f697374656e7420746f6b656e0000000000000000000000000000000000000000602082015250565b7f4552433732313a20617070726f76652063616c6c6572206973206e6f74206f7760008201527f6e6572206e6f7220617070726f76656420666f7220616c6c0000000000000000602082015250565b7f2e00000000000000000000000000000000000000000000000000000000000000600082015250565b7f4552433732313a2062616c616e636520717565727920666f7220746865207a6560008201527f726f206164647265737300000000000000000000000000000000000000000000602082015250565b7f4552433732313a206f776e657220717565727920666f72206e6f6e657869737460008201527f656e7420746f6b656e0000000000000000000000000000000000000000000000602082015250565b7f45524337323155524953746f726167653a2055524920736574206f66206e6f6e60008201527f6578697374656e7420746f6b656e000000000000000000000000000000000000602082015250565b7f227d000000000000000000000000000000000000000000000000000000000000600082015250565b7f4552433732313a206d696e7420746f20746865207a65726f2061646472657373600082015250565b7f45524337323155524953746f726167653a2055524920717565727920666f722060008201527f6e6f6e6578697374656e7420746f6b656e000000000000000000000000000000602082015250565b7f4552433732313a20617070726f76656420717565727920666f72206e6f6e657860008201527f697374656e7420746f6b656e0000000000000000000000000000000000000000602082015250565b7f222c20226465736372697074696f6e223a20224120646f6d61696e206f6e207460008201527f6865205370617274616e206e616d652073657276696365222c2022696d61676560208201527f223a2022646174613a696d6167652f7376672b786d6c3b6261736536342c0000604082015250565b7f4552433732314d657461646174613a2055524920717565727920666f72206e6f60008201527f6e6578697374656e7420746f6b656e0000000000000000000000000000000000602082015250565b7f4e6f7420656e6f756768204d6174696320706169640000000000000000000000600082015250565b7f7b226e616d65223a202200000000000000000000000000000000000000000000600082015250565b7f4552433732313a20617070726f76616c20746f2063757272656e74206f776e6560008201527f7200000000000000000000000000000000000000000000000000000000000000602082015250565b7f646174613a6170706c69636174696f6e2f6a736f6e3b6261736536342c000000600082015250565b7f222c226c656e677468223a220000000000000000000000000000000000000000600082015250565b50565b7f4552433732313a207472616e736665722063616c6c6572206973206e6f74206f60008201527f776e6572206e6f7220617070726f766564000000000000000000000000000000602082015250565b614ebe8161462e565b8114614ec957600080fd5b50565b614ed581614652565b8114614ee057600080fd5b50565b614eec8161465e565b8114614ef757600080fd5b50565b614f03816146aa565b8114614f0e57600080fd5b5056fe0a2d2d2d2d2d2d2d2d2d2d2d2d2d2d2d2d2d2d2d2d2d2d2d2d2d2d2d2d2d2d2d2d2d2d2d2d2d2d2d2d2d2d2d2d2d2d2d2d2d2d2d2d2d2d2d2d2d2d2d2d2d2d2d2d2d2d2d2d2d2d2d2d2d2d2d2d2d2d2d2d2d2d2d2d2d2d2d2d2d2d2d2d2d2d2d2d2d2d2d2d2d2d2d2d2d2d2d2d2d2d2d2d0a4142434445464748494a4b4c4d4e4f505152535455565758595a6162636465666768696a6b6c6d6e6f707172737475767778797a303132333435363738392b2f5265676973746572696e672025732e2573206f6e20636f6e7472616374207769746820746f6b656e494420256447657474696e6720616c6c20646f6d61696e206e616d65732066726f6d20636f6e7472616374a2646970667358221220a9eba0ee721dd57884048e14685a9730b1b161b92ad9a0d54cf07599676bd3a064736f6c634300080400333c73766720786d6c6e733d22687474703a2f2f7777772e77332e6f72672f323030302f737667222077696474683d2232373022206865696768743d22323730222066696c6c3d226e6f6e65223e3c706174682066696c6c3d2275726c282342292220643d224d302030683237307632373048307a222f3e3c646566733e3c66696c7465722069643d22412220636f6c6f722d696e746572706f6c6174696f6e2d66696c746572733d2273524742222066696c746572556e6974733d227573657253706163654f6e55736522206865696768743d22323730222077696474683d22323730223e3c666544726f70536861646f772064783d2230222064793d22312220737464446576696174696f6e3d22322220666c6f6f642d6f7061636974793d222e323235222077696474683d223230302522206865696768743d2232303025222f3e3c2f66696c7465723e3c2f646566733e3c7061746820643d224d37322e3836332034322e393439632d2e3636382d2e3338372d312e3432362d2e35392d322e3139372d2e3539732d312e3532392e3230342d322e3139372e35396c2d31302e30383120362e3033322d362e383520332e3933342d31302e30383120362e303332632d2e3636382e3338372d312e3432362e35392d322e3139372e3539732d312e3532392d2e3230342d322e3139372d2e35396c2d382e3031332d342e37323161342e353220342e35322030203020312d312e3538392d312e363136632d2e3338342d2e3636352d2e3539342d312e3431382d2e3630382d322e313837762d392e3331632d2e3031332d2e3737352e3138352d312e3533382e3537322d322e32303861342e323520342e323520302030203120312e3632352d312e3539356c372e3838342d342e3539632e3636382d2e33383720312e3432362d2e353920322e3139372d2e353973312e3532392e32303420322e3139372e35396c372e38383420342e353961342e353220342e353220302030203120312e35383920312e363136632e3338342e3636352e35393420312e3431382e36303820322e31383776362e3033326c362e38352d342e303635762d362e303332632e3031332d2e3737352d2e3138352d312e3533382d2e3537322d322e32303861342e323520342e32352030203020302d312e3632352d312e3539354c34312e3435362032342e3539632d2e3636382d2e3338372d312e3432362d2e35392d322e3139372d2e3539732d312e3532392e3230342d322e3139372e35396c2d31342e38363420382e36353561342e323520342e32352030203020302d312e36323520312e353935632d2e3338372e36372d2e35383520312e3433342d2e35373220322e3230387631372e343431632d2e3031332e3737352e31383520312e3533382e35373220322e32303861342e323520342e323520302030203020312e36323520312e3539356c31342e38363420382e363535632e3636382e33383720312e3432362e353920322e3139372e353973312e3532392d2e32303420322e3139372d2e35396c31302e3038312d352e39303120362e38352d342e3036352031302e3038312d352e393031632e3636382d2e33383720312e3432362d2e353920322e3139372d2e353973312e3532392e32303420322e3139372e35396c372e38383420342e353961342e353220342e353220302030203120312e35383920312e363136632e3338342e3636352e35393420312e3431382e36303820322e31383776392e333131632e3031332e3737352d2e31383520312e3533382d2e35373220322e32303861342e323520342e32352030203020312d312e36323520312e3539356c2d372e38383420342e373231632d2e3636382e3338372d312e3432362e35392d322e3139372e3539732d312e3532392d2e3230342d322e3139372d2e35396c2d372e3838342d342e353961342e353220342e35322030203020312d312e3538392d312e363136632d2e3338352d2e3636352d2e3539342d312e3431382d2e3630382d322e313837762d362e3033326c2d362e383520342e30363576362e303332632d2e3031332e3737352e31383520312e3533382e35373220322e32303861342e323520342e323520302030203020312e36323520312e3539356c31342e38363420382e363535632e3636382e33383720312e3432362e353920322e3139372e353973312e3532392d2e32303420322e3139372d2e35396c31342e3836342d382e363535632e3635372d2e33393420312e3230342d2e393520312e3538392d312e363136732e3539342d312e3431382e3630392d322e3138375635352e353338632e3031332d2e3737352d2e3138352d312e3533382d2e3537322d322e32303861342e323520342e32352030203020302d312e3632352d312e3539356c2d31342e3939332d382e3738367a222066696c6c3d2223666666222f3e3c646566733e3c6c696e6561724772616469656e742069643d2242222078313d2230222079313d2230222078323d22323730222079323d2232373022206772616469656e74556e6974733d227573657253706163654f6e557365223e3c73746f702073746f702d636f6c6f723d2223636235656565222f3e3c73746f70206f66667365743d2231222073746f702d636f6c6f723d2223306364376534222073746f702d6f7061636974793d222e3939222f3e3c2f6c696e6561724772616469656e743e3c2f646566733e3c7465787420783d2233322e352220793d223233312220666f6e742d73697a653d223237222066696c6c3d2223666666222066696c7465723d2275726c282341292220666f6e742d66616d696c793d22506c7573204a616b617274612053616e732c44656a6156752053616e732c4e6f746f20436f6c6f7220456d6f6a692c4170706c6520436f6c6f7220456d6f6a692c73616e732d73657269662220666f6e742d7765696768743d22626f6c64223e",
  "linkReferences": {},
  "deployedLinkReferences": {}
}